:020000040000FA
:100000000C947A0D0C9427320C9400320C94A20DAF
:100010000C94A20D0C94A20D0C944E320C94A20DD3
:100020000C94A20D0C94A20D0C94CB330C94A20D45
:100030000C94A20D0C9488330C94A20D0C94A20D78
:100040000C94B6310C94A20D0C9484310C945E3156
:100050000C94A20D0C94A20D0C94A20D0C94A20D64
:100060000C9469320C94A20D060000000000000000
:1000700000000000000000000000000000017E03FE
:100080000000000000000000000000000000000070
:100090000000030F0000000F00000000000000003F
:1000A00000000000000000084000C80178004E0079
:1000B000C80178004E000800000000000718012465
:1000C000022402FF0F4402440288010000000000E5
:1000D00000090C0012021201CC0020009801440219
:1000E00042028001000008DC012202220222025C9E
:1000F0000180014002200200000000010F0000000A
:1001000000000000000000000000000000000000EF
:1001100004F0000C030204010800000000000000CD
:10012000000000000004010802040C03F0000000BD
:10013000000000000000000000000550002000F852
:100140000020005000000000000000000000000639
:10015000000020002000F800200020000000000027
:10016000000000000200080007000000000000007E
:10017000000000000000000000042000200020001B
:10018000200000000000000000000000000001004E
:10019000030000000000000000000000000000005C
:1001A00000000006000C0003C00030000C0003003B
:1001B000000000000000000006FC014202220212C2
:1001C000020A02FC01000000000000000005040219
:1001D0000402FE0300020002000000000000000014
:1001E000000006040382024202220212020C0200F4
:1001F00000000000000000060401020222022202A8
:100200002202DC0100000000000000000660005037
:100210000048004400FE0340000000000000000011
:1002200000061E011202120212021202E201000076
:1002300000000000000006F801140212021202126F
:1002400002E00100000000000000000602000200C1
:10025000820362001A000600000000000000000097
:1002600006DC012202220222022202DC010000003E
:100270000000000000063C0042024202420242012D
:10028000FC00000000000000000001180300000056
:10029000000000000000000000000000000000025C
:1002A0000008180700000000000000000000000027
:1002B000000000000640004000A000A00010011057
:1002C0000100000000000000000590009000900078
:1002D00090009000000000000000000000000610E8
:1002E000011001A000A0004000400000000000003C
:1002F0000000000504000200620312000C00000070
:10030000000000000000000009F8030404F2090ADC
:100310000A0A0A0A0AF2090402F8010000070003A7
:10032000E000980086009800E00000030000000054
:10033000000006FE032202220222022202DC010049
:100340000000000000000007F800040102020202A1
:1003500002020202040100000000000007FE030286
:10036000020202020202020401F800000000000082
:100370000006FE03220222022202220202020000E2
:1003800000000000000006FE0322002200220022DE
:10039000000200000000000000000007F800040157
:1003A0000202020242024202C403000000000000F6
:1003B00007FE0320002000200020002000FE030094
:1003C0000000000000030202FE0302020000000021
:1003D0000000000000000000000004000102020212
:1003E00002FE010000000000000000000000000606
:1003F000FE032000500088000401020200000000FB
:100400000000000006FE03000200020002000200DD
:1004100002000000000000000009FE030C00300094
:10042000C0000003C00030000C00FE03000007FE07
:100430000308001000200040008000FE03000000C0
:1004400000000007F8000401020202020202040197
:10045000F80000000000000006FE034200420042D7
:100460000042003C00000000000000000007F8000F
:1004700004010202020282020401F80200000000EC
:10048000000006FE0342004200C20042013C02009E
:1004900000000000000000061C01220222022202CD
:1004A0002202C40100000000000000000702000258
:1004B000000200FE03020002000200000000000033
:1004C0000007FE0000010002000200020001FE0021
:1004D000000000000000070E003000C0000003C054
:1004E0000030000E00000000000000090E00700047
:1004F000800370000C007000800370000E0000008C
:100500000706038800500020005000880006030002
:1005100000000000000702000C003000C0033000A3
:100520000C000200000000000000070203820242EB
:1005300002220212020A020602000000000000036A
:10054000FF0F01080108000000000000000000008B
:10055000000000000603000C003000C00000030093
:100560000C00000000000000000301080108FF0F5C
:100570000000000000000000000000000000071064
:100580000008000400020004000800100000000041
:100590000000000700080008000800080008000824
:1005A0000008000000000000030100020004000039
:1005B00000000000000000000000000000068001B4
:1005C0004802480248024802F00300000000000010
:1005D000000006FF031002080208020802F00100F2
:1005E0000000000000000006F001080208020802F6
:1005F00008021001000000000000000006F00108E1
:1006000002080208020801FF0300000000000000C9
:100610000006F00148024802480248027002000049
:10062000000000000000050800FE030900090001A9
:10063000000000000000000000000006F001080AB1
:10064000080A080A0809F807000000000000000076
:1006500006FF031000080008000800F00300000077
:10066000000000000001F90300000000000000008D
:10067000000000000000000000000300080808F966
:10068000070000000000000000000000000000055E
:10069000FF034000A000100108020000000000005D
:1006A0000000000002FF0100020000000000000046
:1006B00000000000000000000009F803100008001E
:1006C0000800F003100008000800F003000006F81E
:1006D000031000080008000800F0030000000000FC
:1006E00000000006F0010802080208020802F001FA
:1006F000000000000000000006F80F1002080208C9
:10070000020802F001000000000000000006F001F5
:100710000802080208020801F80F000000000000AB
:10072000000005F803100008000800100000000099
:1007300000000000000000053002480248024802A4
:10074000880100000000000000000000040800FF15
:100750000108020802000000000000000000000084
:100760000006F8010002000200020001F803000088
:10077000000000000000053800C0000003C0003881
:100780000000000000000000000000093800C00068
:100790000003C0003000C0000003C00038000000AB
:1007A000051803A0004000A000180300000000008E
:1007B0000000000000061800E000000D0003E0004B
:1007C000180000000000000000000508038802482F
:1007D00002280218020000000000000000000005CE
:1007E00020002000DE0701080108000000000000D2
:1007F0000000000001FF0F000000000000000000EA
:100800000000000000000000000501080108DE07EC
:100810002000200000000000000000000000086030
:1008200000100010002000200040004000300000B8
:1008300000000003FF030102FF03000000000000AE
:10084000000000000000000009F80004010202029C
:10085000023E02220222024401F800000009FE03C7
:100860000202AA02AA02AA02AA02AA020202FE0323
:1008700000000A18002800500053005D0082001C90
:10088000012002400280010A180028005000530095
:100890005F009E003C016002C0028001092000242C
:1008A0000188002000760320008800240120000039
:1008B000000700020000000000020000000000022B
:1008C0000000000000000A00020002FC0304000413
:1008D0000004000400FC03000200020A20001000D3
:1008E000080010002000400080000001800040004F
:1008F0000A30000800040008003000C000000100B9
:10090000020001C000090402FE0744022002200286
:1009100020021002080700020000096000D007084A
:1009200004E4052205E4050804D007600000000582
:1009300020007000D8008C010401000000000000BD
:1009400000000000030E0002000200000000000092
:100950000000000000000000000700000000000090
:100960000000020002000E0000000000000007006E
:100970000000000000000080008000E00000000097
:1009800000000003E0008000800000000000000084
:100990000000000000000000060000000000000051
:1009A0000000000000000000000000000006000041
:1009B0000000000000000000000000000000000037
:1009C0000000060000000000000000000000000021
:1009D0000000000000000009F80004010202A20269
:1009E000EA02820202020401F800000009F8000491
:1009F0000112020A024A032A0212020401F800004C
:100A000000057000F800F800F80070000000000019
:100A10000000000000000930006000C0008001C03C
:100A2000006000300018000C0000000804018C0178
:100A3000D80070007000D8008C0104010000000094
:100A400009FE030202AA02AA02AA028A0282020282
:100A500002FE0300000902001E00020000001E004A
:100A60000400080004001E0000000422004A004A9E
:100A7000003600000000000000000000000000053B
:100A800004018C01D800700020000000000000006C
:100A9000000000000AFC0104010401040104010437
:100AA00001040104010401F8000AFC01FC01040135
:100AB000040104010401040104010401F8000AFC1A
:100AC00001FC01FC0104010401040104010401040E
:100AD00001F8000AFC01FC01FC01FC010401040115
:100AE000040104010401F8000AFC01FC01FC01FC02
:100AF00001FC010401040104010401F8000AFC01E5
:100B0000FC01FC01FC01FC01FC01040104010401E5
:100B1000F8000AFC01FC01FC01FC01FC01FC01FCE9
:100B20000104010401F8000AFC01FC01FC01FC01C4
:100B3000FC01FC01FC01FC010401F8000AFC01FCC1
:100B400001FC01FC01FC01FC01FC01FC01FC01F8C1
:100B5000000AFC010401040030022801A400620024
:100B600000010401F800090003C00230020C020277
:100B7000020C023002C00200030000066C0492085E
:100B8000120912092209C40600000000000000003A
:100B900006FC032502240224022502240200000090
:100BA000000000000009F8030404F2090A0A0A0A16
:100BB0000A0A12090404F803000007F800240122BD
:100BC00002220222022202040100000000000006AC
:100BD0006000900008016000900008010000000023
:100BE000000000000504010603FF070603040100DE
:100BF0000000000000000000000780044E065101C4
:100C0000F10051014E06800400000000000009F8C8
:100C1000030404FA0B4A08CA084A09320A0404F811
:100C2000030000030502FC030502000000000000B1
:100C30000000000000000000051C0022002200222D
:100C4000001C000000000000000000000007100170
:100C500010011001FE011001100110010000000040
:100C6000000006000000000000000000000000007E
:100C7000000000000000000600000000000000006E
:100C8000000000000000000000000000060000005E
:100C90000000000000000000000000000000000054
:100CA0000007F80F0001000200020002F801000234
:100CB000000000000000061C0022002200FE0F02BF
:100CC00000FE0F0000000000000000026000600055
:100CD0000000000000000000000000000000000014
:100CE00006F0014A02480248024A0270020000006F
:100CF00000000000000AFE030C003000C000FE03EC
:100D000000001C00A200A2001C0006F001480248DE
:100D10000248020802100100000000000000000666
:100D200008019000600008019000600000000000D1
:100D300000000000060000000000000000000000AD
:100D4000000000000000000000060000000000009D
:100D5000000000000000000000000000000006404D
:100D600000E0005001400040007C00000000000056
:100D7000000000030200F803020000000000000071
:100D80000000000000000000070003E0009800865B
:100D9000009800E000000300000000000006FE03D1
:100DA0002202220222022202C001000000000000F2
:100DB000000006FE032202220222022202DC0100BF
:100DC0000000000000000006FE0302000200020016
:100DD0000200020000000000000000000800060001
:100DE00003E0021E0202020202FE030006000000EF
:100DF0000006FE0322022202220222020202000058
:100E0000000000000000090603880050002000FEDA
:100E100003200050008800060300000604010202BF
:100E2000220222022202DC01000000000000000079
:100E300007FE0380004000200010000800FE0300B1
:100E4000000000000007FE038000410021001100A7
:100E50000800FE0300000000000006FE0320005012
:100E600000880004010202000000000000000006EB
:100E70000003E0001C0002000200FE03000000006E
:100E80000000000009FE030C003000C0000003C099
:100E90000030000C00FE03000007FE0320002000CD
:100EA000200020002000FE0300000000000007F8E2
:100EB0000004010202020202020401F80000000024
:100EC00000000007FE030200020002000200020010
:100ED000FE0300000000000006FE03420042004244
:100EE0000042003C00000000000000000007F80085
:100EF00004010202020202020202040100000000D8
:100F0000000007020002000200FE030200020002CD
:100F100000000000000000070600180260028001C7
:100F20006000180006000000000000000970008842
:100F30000004010401FE03040104018800700000A4
:100F400000070603880050002000500088000603B8
:100F500000000000000007FE030002000200020083
:100F600002FE030006000000000000073E004000F3
:100F70004000400040004000FE0300000000000070
:100F800009FE03000200020002FE0300020002004C
:100F900002FE0300000AFE03000200020002FE033C
:100FA000000200020002FE030006070200FE03200A
:100FB00002200220022002C0010000000000000800
:100FC000FE032002200220022002C0010000FE03D6
:100FD0000000000006FE032002200220022002C0C2
:100FE00001000000000000000007040122022202AC
:100FF000220222022401F8000000000000000AFE84
:101000000320002000F80004010202020202020490
:1010100001F800063C024201C20042004200FE0309
:10102000000000000000000006800148024802485D
:10103000024802F003000000000000000006FC016E
:101040000A02090209020902F10100000000000081
:10105000000006F8034802480248024802B00100B6
:101060000000000000000005F80308000800080068
:1010700008000000000000000000000007000680DB
:1010800003780208020802F80300060000000000CE
:101090000006F001480248024802480270020000BF
:1010A0000000000000000908021001A0004000F844
:1010B000034000A0001001080200000508024802D9
:1010C00048024802B00100000000000000000000DB
:1010D00006F8030001800040002000F80300000033
:1010E000000000000006F803010182004200210018
:1010F000F803000000000000000006F80340004074
:1011000000A000100108020000000000000000061E
:101110000003C000300008000800F80300000000D1
:101120000000000007F80310002000C0002000109D
:1011300000F80300000000000006F8034000400033
:1011400040004000F803000000000000000006F02E
:10115000010802080208020802F001000000000075
:1011600000000006F8030800080008000800F80363
:10117000000000000000000006F80F10020802083E
:10118000020802F001000000000000000006F0016B
:101190000802080208020802100100000000000016
:1011A00000000508000800F803080008000000001F
:1011B00000000000000000061800E000000D000321
:1011C000E0001800000000000000000007F0010827
:1011D000020802FE0F08020802F0010000000000F1
:1011E00000051803A0004000A00018030000000044
:1011F00000000000000006F803000200020002F8F0
:1012000003000600000000000000000678008000D7
:10121000800080008000F803000000000000000053
:1012200007F80300020002F80300020002F80300BE
:10123000000000000008F80300020002F8030002AA
:101240000002F803000600000000060800F8032072
:101250000220022002C00100000000000000000780
:10126000F803200220022002C0010000F803000061
:101270000000000005F803200220022002C0010047
:1012800000000000000000000006100108024802F3
:1012900048024802F001000000000000000008F8C9
:1012A0000340004000F001080208020802F00100BB
:1012B0000000000630024801C80048004800F8035A
:1012C0000000000000000000080000000000000016
:1012D000000000000000000000000000000000000E
:1012E0000000000000000002FC06FC0600000000F8
:1012F00000000000000000000000000000000000EE
:10130000000000000000051E001E0000001E001E60
:1013100000000000000000000000000000000000CD
:10132000000000000002300C300C00000000000043
:1013300000000000000000000000000000000000AD
:10134000000000000738027C046404FF1FC404C4CA
:1013500007880300000000000000000000000000FB
:101360000000000F7800FC0084008400FC00780678
:10137000800140003000CC03E00720042004E00797
:10138000C00309B803FC0744044404FC04B8030088
:1013900003E0066004000000000000000000000000
:1013A00000070030003000300030003000300030E6
:1013B000000000000000000000000000000000002D
:1013C00005E003F80F1C1C0630022000000000009E
:1013D0000000000000000000000000000000000508
:1013E000022006301C1CF80FE00300000000000083
:1013F00000000000000000000000000000000744A2
:101400000028001000FE001000280044000000002A
:101410000000000000000000000000000007400085
:1014200040004000F8034000400040000000000081
:101430000000000000000000000000000400300078
:101440003E000E000200000000000000000000004E
:101450000000000000000000000000054000400007
:1014600040004000400000000000000000000000BC
:10147000000000000000000000000200060006005E
:10148000000000000000000000000000000000005C
:10149000000000000000000000070018001E800788
:1014A000E00178001E0006000000000000000000BF
:1014B000000000000000000007FE07FF0F81096127
:1014C000081908FF0FFE07000000000000000000E0
:1014D0000000000000000007000004080608FF0FDD
:1014E000FF0F0008000800000000000000000000DE
:1014F00000000000000007060E070F8109C1086107
:10150000083F081E08000000000000000000000066
:101510000000000000070106010E010831087908EB
:10152000CF0F87070000000000000000000000004F
:101530000000000007C001F0011C010601FF0FFFC1
:101540000F0001000000000000000000000000008B
:10155000000000071F061F0E110811081108F10FE7
:10156000E107000000000000000000000000000093
:10157000000007FC07FE0F130811081108F10FE027
:101580000700000000000000000000000000000054
:1015900000070100010E810FE10179001F00070023
:1015A000000000000000000000000000000000003B
:1015B000078E07DF0F710821087108DF0F8E070003
:1015C0000000000000000000000000000000000714
:1015D0007E00FF0881088108810CFF07FE030000E0
:1015E0000000000000000000000000000000E2FB1E
:1015F000EAEB00E2EAEB00E0E2F2EE00E2EAEB20E6
:1016000028F1F7E5F2203D20302900E2EAEB20281E
:10161000F1F7E5F2203D2031290000323032322E40
:1016200030322E31382076312E332D52550028633A
:101630002920524956410047656E657261746F7288
:101640000000EE150B16FC1520002E003A00F100EC
:10165000ECF100E1EEE42FF1003000EAC3F600EC1B
:10166000EAF100E1E0E9F200207820003020ECF11E
:101670000000EE15F315F715031B1600000000001F
:10168000000000000000000000000000000000005A
:10169000000000032E160000000000000000000003
:1016A00000000000000000000000000000000342F5
:1016B0001600020100841C00000000000000000071
:1016C0000000000000000000000168160178010021
:1016D000941C016C1601780100A41C00000000009D
:1016E0000000000003721600010100B41C0000009D
:1016F00000000000000000000000000000000001E9
:101700004816011E0100C41C034E16000000000014
:101710000000000000000000000003571A00140140
:1017200000D41C03481600000000000003531600FC
:101730000000000000014816057D0500E41C035070
:101740001600000000000000000000000000000083
:1017500001591601460100F41C0348160000000060
:101760000000035B1600000000000001591600781D
:101770000100C71F034816000000000000034E16BA
:1017800000000000000003721600010100041D00AB
:101790000000000000000000000000000000000049
:1017A00000010000011001001D1D000000000000EC
:1017B000000000000000000000000000FFF0EAEE62
:1017C000F1F2FC20E4E8F1EF2E00E8EDE2E5F0F1C3
:1017D000E8FF20E4E8F1EF2E00E2FBEAEB2E20E444
:1017E000E8F1EFEBE5FF00E8EDF4EE3A20E0E2F29D
:1017F000EEF000E8EDF4EE3A20E2E5F0F1E8FF006B
:101800004932433A20F7E0F1F2EEF2E00049324388
:101810003A20EFE5F0E8EEE400554152543A20F268
:10182000E0E9ECE0F3F200554152543A20F1EAEEDF
:10183000F0EEF1F2FC00E7E2F3EA00E7E2F3EA3A65
:1018400020F1E8E3EDE0EB004750494F20F2E0E9FA
:10185000ECE5F0E00000BC17A117CA178617D917EE
:101860006B17001850170D18351727181A17191865
:10187000FF163618E4163B18C9164818AE16E717B7
:101880009316F3177816C3E5EDE5F0E0F2EEF000FD
:10189000C3E5EDE5F0E0F2EEF020D8C8CC00D7E0EB
:1018A000F1F2EEF2EEECE5F0004932432DF1EAE020
:1018B000EDE5F000D1EAEEF0EEF1F2FC20554152F8
:1018C0005400CCEEEDE8F2EEF0205541525400D237
:1018D000E0E9ECE5F000D1E5EAF3EDE4EEECE5F06B
:1018E00000CDE0F1F2F0EEE9EAE800003735003132
:1018F0003130003133340031353000323030003394
:101900003030003630300031323030003138303055
:10191000003234303000343830300037323030006C
:1019200039363030003134343030003139323030F3
:10193000003238383030003338343030003536300B
:10194000303000353736303000313135323030000C
:1019500031323830303000323330343030003436C9
:1019600030383030003932313630300000462C20EB
:101970000020002E003A00F100ECF100E1EEE42F2F
:10198000F1003000EAC3F600ECEAF100E1E0E9F230
:1019900000207820003020ECF10000CFD3D1CA0025
:1019A000D1D2CECF00D1C1D0CED100EDE5F220F31F
:1019B000F1F2F0EEE9F1F2E200E4E5F2E5EAF2E854
:1019C000F0EEE2E0EDE8E52E2E2E00EDE5F220F15E
:1019D000E8E3EDE0EBE020527800EDE5F220F1E8FD
:1019E000E3EDE0EBE000D4EEF0ECE000542C20EC72
:1019F000EAF100CA2EE7E0EF2E00E8EDE8F6E8E0B5
:101A0000EBE8E7E0F6E8FF2E2E2E00E1F3F4E5F038
:101A100000F7E0F100ECE8ED00F1E5EA00E2F0E5C6
:101A2000ECFF20E2FBF8EBEE00000000008618005F
:101A3000000090180000009E18000000A918000087
:101A400000B418000000C218000000CF1800000009
:101A5000D6180C5618E118EC18EF18F318F718FB05
:101A600018FF18031907190C19111916191B192039
:101A70001925192B19311937193D194319491950CD
:101A80001900000000250028002B000000000800BD
:101A9000020100000304070000000000000000AE87
:101AA000A6AED580A81FD300408D14A1C8DA02814C
:101AB000CFD9F1DB30A4A6AF2E20020010B0000079
:101AC0000000240027002A000102040810204080A2
:101AD0000102040810200102040810200404040478
:101AE00004040404020202020202030303030303C8
:101AF000F933D63611241FBECFEFD8E0DEBFCDBFFD
:101B000011E0A0E0B1E0ECEDF3E702C005900D922A
:101B1000A036B107D9F726E0A0E6B1E001C01D92DA
:101B2000AD38B207E1F71DE0C9E7DDE004C0219759
:101B3000FE010E94DB39C837D107C9F70E94CC34B7
:101B40000C94E1390C940000CF92DF92EF92FF9257
:101B50006B017C01E0913B03F0913C0382E08083C8
:101B6000C11481EED806E104F104A1F060E079E04F
:101B70008DE390E0A70196010E943F372150310983
:101B8000410951095695479537952795211580E1CB
:101B90003807A8F0E0913B03F0913C03108260E825
:101BA00074E88EE190E0A70196010E943F37215032
:101BB0003109410951095695479537952795E09187
:101BC0003703F09138033083E0913903F0913A0301
:101BD000208310924303E0913F03F091400386E09D
:101BE0008083E0913D03F0913E038081806180839A
:101BF000E0913D03F0913E03808188608083E09115
:101C00003D03F0913E03808180688083E0913D0335
:101C1000F0913E0380818F7D8083FF90EF90DF9075
:101C2000CF9008958093790660937A066132B8F078
:101C3000E0918906F0918A06948180917C06989FB4
:101C4000800D1124982F80E2891B6F3F49F080930B
:101C50007A0680917A06813210F010927A06089501
:101C60008695F5CF2F923F924F925F926F927F921F
:101C70008F929F92AF92BF92CF92DF92EF92FF929C
:101C80000F931F93CF93DF93CDB7DEB729970FB68E
:101C9000F894DEBF0FBECDBFA0918906B0918A0631
:101CA0008A3029F514968C9160917C06869F600D90
:101CB000112480917A06680F80E029960FB6F89477
:101CC000DEBF0FBECDBFDF91CF911F910F91FF906F
:101CD000EF90DF90CF90BF90AF909F908F907F90CC
:101CE0006F905F904F903F902F900C94120E8A301F
:101CF00008F4805D16962C911697821708F416C189
:101D000090917A06903208F011C1821B12962C91A4
:101D10001297213069F415962C911597ED91FC914D
:101D20001197829FE00DF11D1124E491E0937D064F
:101D3000F0907D0660918B06262F2870922E609081
:101D40007E0670907F0663013FEFC31AD30AD694D4
:101D5000C794D694C794462F41704983292F277082
:101D600031E001C0330F2A95EAF73A83E0907B0611
:101D700096959695969520907C0650E8959F5001F3
:101D8000112410E000E0262F24702B83627030E0D5
:101D900020E00F1560F54D915C9111975D834C83A8
:101DA00071E0710F15962C91159712964C91129720
:101DB00050E0829F400D511D1124FA01E10FF11DE9
:101DC0002C813D81E20FF31FE4912E2F30E0149619
:101DD000EC911497E93008F45DC01E5FFA01E70F3B
:101DE000F11D4C815D81E40FF51FE4913E2B99209C
:101DF00011F02C293D295981552311F0209530955A
:101E00002621372110928406109280061496EC91B8
:101E10001497EF5FEE838A8070E0EE81E1113CC0A1
:101E200020917906322E3E0C321609F479C027FD36
:101E300096C0F501E20FF11DAF014C585B4F2A012E
:101E4000E0E8F6E0FD83EC83592F3B81332349F032
:101E5000EC81FD813481832E8094F201358138211B
:101E60003583F2018580EC81FD813191FD83EC8326
:101E7000662309F453C03825F20135835F5FF0E82B
:101E80004F0E511C352F391B731710F05430E9F6E3
:101E90002F5FCACF172FABCF1F822901F1E04F224E
:101EA00055244F81241689F1472F50E0FA01EC5850
:101EB000FB4FF987E887E05FFD4F3080382830829C
:101EC0004114510451F048855985445F5D4F5D834D
:101ED0004C83FA01408148294083482D440F81F406
:101EE0007F5F7430C0F4472F50E04C585B4FFA01CD
:101EF000E05FFD4F1082445F5D4FFA01108241E0C8
:101F0000FF81FF5FFF83842ECCCF4E8141503695F9
:101F100027954E8382CF88248394F9CF3829ACCF7C
:101F2000309279060F5FF01608F031CF29960FB680
:101F3000F894DEBF0FBECDBFDF91CF911F910F91FF
:101F4000FF90EF90DF90CF90BF90AF909F908F90D9
:101F50007F906F905F904F903F902F9008952093C7
:101F60007906E4CFEF92FF921F93CF93DF9300D0D7
:101F700000D01F92CDB7DEB72091880610E03AE07E
:101F8000E32EF12C009779F421110EC01123D1F02A
:101F90001150E1E0F0E0EC0FFD1FE10FF11D808139
:101FA0000E94320EF3CF21112150E1E0F0E0EC0F5E
:101FB000FD1FE10FF11DB7010E94B3398083CB01F2
:101FC0001F5FE0CF0F900F900F900F900F90DF9159
:101FD000CF911F91FF90EF9008958F929F92AF92B3
:101FE000BF92EF92FF920F931F93CF93DF93CDB7E2
:101FF000DEB72A970FB6F894DEBF0FBECDBF0091B3
:10200000880610E03AE0832E912CA12CB12C6115AA
:1020100071058105910579F401110EC01123F1F0CC
:102020001150E1E0F0E0EC0FFD1FE10FF11D8081A8
:102030000E94320EF3CF01110150EE24E394F12CF3
:10204000EC0EFD1EE10EF11CA50194010E943F372C
:10205000F7016083B901CA011F5FD9CF2A960FB675
:10206000F894DEBF0FBECDBFDF91CF911F910F91CE
:10207000FF90EF90BF90AF909F908F9008958F92B8
:102080009F92AF92BF92CF92DF92EF92FF920F9307
:102090001F93CF936B017C01142F20E030E0A90146
:1020A0000E94DD3787FF07C08DE20E94320EF7FAEB
:1020B000F094F7F8F094C0E060E070E080E09FE317
:1020C000C11741F020E030E040E251E40E94E237E5
:1020D000CF5FF6CFA70196010E9471376B017C019B
:1020E0000E9454384B015C010E94ED0FCC2389F112
:1020F000C501B4010E9483389B01AC01C701B60140
:102100000E9470376B017C018CE20E94320EC1503C
:1021100000F120E030E040E251E4C701B6010E9446
:102120003A396B017C010E945438062F10E0C80137
:102130000E94B20FB801110F880B990B0E948538CD
:102140009B01AC01C701B6010E9470376B017C0195
:10215000DECFCF911F910F91FF90EF90DF90CF9046
:10216000BF90AF909F908F900895E0918906F09175
:102170008A0690917B062281213079F42681821B88
:1021800025810190F081E02D829FE00DF11D112449
:102190008491989F802D112408958381FACFAF9266
:1021A000BF92CF92DF92EF92FF920F931F93CF9344
:1021B000DF93D0918806C0E02AE0C22ED12CE12C1A
:1021C000F12CA70196010E943F3759018A0180E353
:1021D000860F0E94B51020917B06820FC80FB501B3
:1021E000C801DD23A9F0D150611571058105910564
:1021F00041F7D111E6CF8C2F821BDF91CF911F9138
:102200000F91FF90EF90DF90CF90BF90AF90089527
:102210006115710581059105A1F6EDCF8F929F9211
:10222000AF92BF92CF92DF92EF92FF921F93CF9324
:10223000DF936B017C01D42F20E030E0A9010E94E4
:10224000DD37C0E087FF0AC08DE20E94B510C09163
:102250007B06C80FF7FAF094F7F8F09410E060E00E
:1022600070E080E09FE31D1741F020E030E040E2A5
:1022700051E40E94E2371F5FF6CFA70196010E944A
:1022800071376B017C010E9454384B015C010E9444
:10229000CF10C80F1123C9F1C501B4010E948338C2
:1022A0009B01AC01C701B6010E9470376B017C0134
:1022B0008CE20E94B51090917B06C90FC80F115097
:1022C00020F120E030E040E251E4C701B6010E9475
:1022D0003A396B017C010E945438D62F80E38D0F70
:1022E0000E94B51090917B06890FC80F6D2F70E08A
:1022F00090E080E00E9485389B01AC01C701B601E7
:102300000E9470376B017C01DACF8C2FDF91CF9167
:102310001F91FF90EF90DF90CF90BF90AF909F9074
:102320008F9008950F931F93CF938C01C0E0F80115
:10233000EC0FF11D8081882321F0CF5F0E94320EC7
:10234000F6CFCF911F910F9108950F931F93CF93C5
:10235000DF938C01D0E0C0E0F801ED0FF11D80812A
:10236000882341F0DF5F0E94B51090917B06890FB2
:10237000C80FF2CF80917B06C81B8C2FDF91CF91C5
:102380001F910F910895813860F4809379068091B0
:102390007906813810F010927906809179060C94B4
:1023A000120E90E8941B8F3F19F4892F8695EDCF7C
:1023B00091E0941B981B892FE8CF0F931F93CF9325
:1023C000DF93EC01162F042F0E94A511482F602FD8
:1023D000812F0E94C311CE01DF91CF911F910F91E8
:1023E0000C949211FC0190938A0680938906892BA4
:1023F00009F4FFCF24812E5F81E090E002C0880FB6
:10240000991F2A95E2F7019790937F0680937E06A5
:102410008281811104C083818F5F80937D0608953E
:102420000F931F93CF93DF93D82F862FC22F642F44
:102430000E94120E90917A06892F86958695869530
:102440009770D130B1F5E0917906E7FD5EC030912B
:102450008C06D32FD27031700E2F10E0A1E0B0E0C7
:10246000CC2309F452C0843008F04FC0AD01092ECE
:1024700001C0440F0A94EAF720E8829FB0011124BA
:102480006C587B4F600F711FFB012581DD2349F0E4
:10249000242725839F5F983011F48F5F90E0C1500F
:1024A000DFCF332321F040952423FB01F2CF242BEF
:1024B000FCCF843050F54091790650918C06752FF1
:1024C0007270517021E030E001C0220F9A95EAF756
:1024D000622F2095C40FF0E88F9FC00111248C5803
:1024E0009B4F4C1791F047FD10C0FC01E40FF11D0C
:1024F0003581772321F0362735834F5FF2CF55237F
:1025000011F03223F9CF362BF7CFDF91CF911F9106
:102510000F910895FF920F931F93CF93DF93182F7E
:10252000D62F80917906C82FC11B181718F0C12F1C
:10253000C81B182F80917A06082F0D1BD81718F08A
:102540000D2F081BD82F80918C0682FF12C0CF5F01
:10255000F12C4D2F4F0D2C2F612F80E00E94101277
:10256000F3940F15B0F7DF91CF911F910F91FF906A
:1025700008952C2F4D2F612F80E00E941012402FC4
:102580004D0F61E0610F2C2F80E00E94101241E09E
:102590004D0F202F612F81E00E9410126C2F610FD0
:1025A000202F4D2F81E0DF91CF911F910F91FF9050
:1025B0000C94101208950895AF92BF92CF92DF92BB
:1025C000EF92FF920F931F93CF93DF936C017B01E8
:1025D0008B01040F151FEB015E01AE18BF08C01779
:1025E000D10759F06991D601ED91FC910190F081EC
:1025F000E02DC6010995892B79F7C501DF91CF91AF
:102600001F910F91FF90EF90DF90CF90BF90AF9010
:102610000895FC01538D448D252F30E0842F90E0E8
:10262000821B930B541710F0CF96089501970895CD
:10263000FC01918D828D981761F0A28DAE0FBF2F96
:10264000B11D5D968C91928D9F5F9F73928F90E0EC
:1026500008958FEF9FEF0895FC01918D828D98175B
:1026600031F0828DE80FF11D858D90E008958FEF98
:102670009FEF0895FC01918D228D892F90E0805C61
:102680009F4F821B91098F73992708958BE293E0E6
:102690000E943A1321E0892B09F420E0822F08954B
:1026A00080E090E0892B29F00E94461381110C9460
:1026B00000000895FC01A48DA80FB92FB11DA35AE5
:1026C000BF4F2C91848D90E001968F739927848F52
:1026D000A689B7892C93A089B1898C918370806475
:1026E0008C93938D848D981306C00288F389E02D16
:1026F00080818F7D80830895EF92FF920F931F93C7
:10270000CF93DF93EC0181E0888F9B8D8C8D9813A4
:102710001AC0E889F989808185FF15C09FB7F894B0
:10272000EE89FF896083E889F989808183708064FC
:1027300080839FBF81E090E0DF91CF911F910F9147
:10274000FF90EF900895F62E0B8D10E00F5F1F4F56
:102750000F731127E02E8C8D8E110CC00FB607FC65
:10276000FACFE889F989808185FFF5CFCE010E94F3
:102770005A13F1CFEB8DEC0FFD2FF11DE35AFF4FF4
:10278000F0829FB7F8940B8FEA89FB898081806281
:10279000CFCFCF93DF93EC01888D8823B9F0AA893E
:1027A000BB89E889F9898C9185FD03C0808186FD0C
:1027B0000DC00FB607FCF7CF8C9185FFF2CF80815B
:1027C00085FFEDCFCE010E945A13E9CFDF91CF9163
:1027D00008958BE293E00E94C913EBE2F3E0A28933
:1027E000B3898C918F7E8C93A289B3898C91877FDA
:1027F0008C93A289B3898C918F778C93A289B389AA
:102800008C918F7D8C93828D818F089590E0FC0157
:10281000E557F54E2491FC01E853F54E3491FC0147
:10282000E452F54EE491EE23C9F0222339F023302F
:1028300001F1A8F4213019F1223029F1F0E0EE0F76
:10284000FF1FEF57F54EA591B4918FB7F894EC9117
:10285000611126C030953E233C938FBF08952730E9
:10286000A9F02830C9F0243049F7809180008F7D8D
:1028700003C0809180008F7780938000DFCF84B584
:102880008F7784BDDBCF84B58F7DFBCF8091B00087
:102890008F778093B000D2CF8091B0008F7DF9CF39
:1028A0003E2BDACF1F93CF93DF93EC018091560438
:1028B000882309F452C08091DA02882361F08FB72F
:1028C000F8949091DA029130B9F59DB39093D902C2
:1028D0009DB39DBB8FBF88E58CBD81E08DBD60E061
:1028E000809155040E9406149C2F8D2F0CB405FC7A
:1028F00026C0DEBD00000DB407FEFDCF8EB59EBD27
:1029000000000DB407FEFDCF8EB561E08091550447
:102910000E9406148091DA02882351F09FB7F89440
:102920002091DA028091D9022130A9F48DBB9FBF9A
:10293000DF91CF911F9108958093D902CCCFCEBD66
:1029400000000DB407FEFDCF9EB58EBD00000DB496
:1029500007FEFDCFD9CF8FBFEBCF60E0809155044C
:102960000E94061410E16D2F661F6627661F809176
:1029700053040E94061460E0809154040E940614DF
:1029800061E0809154040E940614CC0FDD1F1150A9
:1029900051F760E0809153040E94061461E0809139
:1029A0005504DF91CF911F910C940614EF92FF9282
:1029B0000F931F93CF93DF93EC01CB01BA01FE017C
:1029C000EE0FFF1FEE0FFF1FE95BFB4F608371836C
:1029D000828393838E01000F111F000F111F980136
:1029E0002D5C3B4F790120E030E040E85DE40E943F
:1029F0003A3920E23CEB4EEB5BE40E94E23720E008
:102A000030E040E05FE30E9471370E945438F701E4
:102A10006283738384839583219759F1C0E0D0E466
:102A200080913304909134040E9452140D5C1B4F2A
:102A3000F801828193819F738C2B9D2B0E945214ED
:102A4000F80182819381A481B5812EE0B695A79586
:102A5000979587952A95D1F79F738C2B9D2B0E9474
:102A6000521481E0DF91CF911F910F91FF90EF9071
:102A70000895C0E0D0E8D4CFCF93DF9390E0FC017D
:102A8000E853F54E24918452954EFC01849188239D
:102A9000D1F090E0880F991FFC01E254F54EA5910A
:102AA000B491FC01EF57F54EC591D49161110EC060
:102AB0009FB7F8948C91E22FE0958E238C93288118
:102AC000E223E8839FBFDF91CF9108958FB7F894F9
:102AD000EC91E22BEC938FBFF6CF3FB7F894809147
:102AE000BF029091C002A091C102B091C20226B56E
:102AF000A89B05C02F3F19F00196A11DB11D3FBF36
:102B0000BA2FA92F982F8827BC01CD01620F711D04
:102B1000811D911D42E0660F771F881F991F4A95FE
:102B2000D1F708958F929F92AF92BF92CF92DF928A
:102B3000EF92FF926B017C010E946D154B015C01CD
:102B4000C114D104E104F104B9F00E946D156819B3
:102B500079098A099B09683E73408105910580F3D4
:102B600021E0C21AD108E108F10888EE880E83E05E
:102B7000981EA11CB11CE4CFFF90EF90DF90CF9086
:102B8000BF90AF909F908F9008952FB7F894609169
:102B9000BB027091BC028091BD029091BE022FBF1A
:102BA00008959F92AF92BF92CF92DF92EF92FF92E1
:102BB0000F931F93CF93DF930E94C515E0905A04A3
:102BC0002091570430E04091580450915904A7E5F2
:102BD000B4E090E080E0E5E09E2E8E1508F074C031
:102BE000989EF001999EF00D1124E15AFB4FC0818F
:102BF0001C2F1170C1FBBB24B0F81496EC911497F4
:102C0000E83030F5F9B0F0E0EC5CFE4FE081EF2108
:102C100001E009F400E0989EE001999ED00D112496
:102C2000FE01E15AFB4F6F01E08100FBE1F9E60193
:102C3000E883101761F11B1115C017967C936E93F2
:102C40001697E881E77CE460E88301961596C5CF86
:102C5000EE3018F4F3B0E850D6CFE631E0F6F6B037
:102C6000EE50D1CFE2FFF1CF1696AD90BC90179702
:102C7000EB01CA19DB094C175D0738F7EB7FFE2F14
:102C8000FF7EE5FFF061EF2FE062E601DDCFE2FFBE
:102C900010C0E5FD0EC01696AD90BC901797EB01E5
:102CA000CA19DB092C173D0720F4E860EB7FE60129
:102CB000E883989EF001999EF00D1124E15AFB4F94
:102CC000C081CF7DC083C1CFDF91CF911F910F9184
:102CD000FF90EF90DF90CF90BF90AF909F900895BE
:102CE0008091D403882309F441C00E94C515409106
:102CF000D7035091D8032091D5033091D603FA0120
:102D0000E21BF30B9F01260F371F3093D80320934C
:102D1000D7037093D6036093D503283EF3E03F07B3
:102D200028F1C901885E93409093D8038093D7031C
:102D30008091D9038F5F8C3319F08093D903089564
:102D40001092D9038091DB038F5F8C3319F080934D
:102D5000DB0308951092DB038091DD038F5F8831E0
:102D600019F08093DD0308951092DD03089508950E
:102D700020919602260F3327331F21323105ECF4C0
:102D800020910103FC0190E080E0243069F082E0B2
:102D90000895A09196022191AC014A585D4FA40F6D
:102DA000B52FB11D2C930196861798F3809196024A
:102DB000680F6093960280E0089581E00895109274
:102DC000010381E0809300031092DB0261E082E165
:102DD0000E94061461E083E10E940614E9EBF0E032
:102DE00080818E7F808380818D7F808388E4809343
:102DF000B80085E48093BC000895CF93DF9391E001
:102E0000909375028823B9F0C091B800D091BA00B0
:102E10008091BC008A7B8093BC0060E082E10E94CC
:102E2000061460E083E10E9406140E94DF16D0932E
:102E3000BA00C093B800DF91CF910895CF92DF928E
:102E4000EF92FF920F931F93CF93DF93D0912A03BA
:102E500081E0D13208F09CC0C09129030E946D1519
:102E60006B017C018091010381116CC082E0809331
:102E7000010381E0809300038FEF8093FF021092A3
:102E8000FE02D093FD02A9E0B3E0EDEDF2E080E0B8
:102E9000D8138DC01092DC028091DC02CC0FC82BBD
:102EA000C093DC028091DB02813009F084C0109273
:102EB000DB020E946D156B017C018091DC02809326
:102EC000BB008091030390910403A0910503B0918E
:102ED0000603892B8A2B8B2BA1F00E946D15009184
:102EE00003031091040320910503309106036C192C
:102EF0007D098E099F09061717072807390708F467
:102F000042C08091BC0083FDD8CF85EC8093BC008B
:102F10000E946D156B017C0180910103823009F4E0
:102F20004CC08091FF028F3F09F469C08091FF027D
:102F3000803209F466C08091FF02803309F463C0D7
:102F400084E026C08091030390910403A0910503BF
:102F5000B0910603892B8A2B8B2B09F483CF0E9417
:102F60006D15009103031091040320910503309126
:102F700006036C197D098E099F0906171707280794
:102F8000390708F06FCF809102030E94FD1685E09B
:102F90001092080310922A0310920703DF91CF9139
:102FA0001F910F91FF90EF90DF90CF9008959D912A
:102FB00091938F5F6DCF85EEA9CF809103039091A0
:102FC0000403A0910503B0910603892B8A2B8B2B58
:102FD00009F4A2CF0E946D15009103031091040320
:102FE00020910503309106036C197D098E099F0914
:102FF000061717072807390708F08ECFC4CF80E0DF
:10300000C7CF82E0C5CF83E0C3CF0895E091D70258
:103010008091D602E81730F4F0E0EB5AFD4F808142
:1030200090E008958FEF9FEF08959091D7028091DF
:10303000D6022FEF3FEF981748F4E92FF0E0EB5A54
:10304000FD4F208130E09F5F9093D702C901089522
:103050008091D6029091D702891B990B0895CF9247
:10306000DF92EF92FF920F931F93CF93DF937C0138
:10307000CB018A0120910703222389F0EB016B0128
:10308000C40ED51ECC15DD0569F06991D701ED910F
:10309000FC910190F081E02DC7010995F3CF642FD9
:1030A0000E94B816C801DF91CF911F910F91FF9038
:1030B000EF90DF90CF900895CF93DF931F92CDB71D
:1030C000DEB76983209107032223F9F020912A03B8
:1030D000203258F021E030E0FC013383228390E07D
:1030E00080E00F90DF91CF91089580910803E82F41
:1030F000F0E0E75FFC4F998190838F5F8093080336
:1031000080932A0381E090E0ECCF61E0CE0101964C
:103110000E94B816F7CFCF93C82F8091740491E026
:1031200090930703809329031092080310922A03B7
:1031300060E888EC93E00E945C186C2F88EC93E0C8
:103140000E945C18CF910C941E17CF92DF92FF92D1
:103150000F931F93CF93DF932091750430917604E2
:10316000409177045091780460E074E284EF90E03D
:103170000E943F3720513109410951095695479521
:10318000379527952093B80089E00E948B1880E03E
:103190000E948B18C9E7D4E010E0FF24F394812F3C
:1031A000806B0E948B1880917404F09207038093C7
:1031B00029031092080310922A0360E488EC93E03C
:1031C0000E945C186E0180E8C80ED11C00E0FE0170
:1031D000CC15DD05D9F02196608188EC93E00E9442
:1031E0005C180F5F0F3199F70E941E1780917404CD
:1031F000F0920703809329031092080310922A0388
:1032000060E488EC93E00E945C18E0CF0E941E17F7
:103210001F5F143021F6DF91CF911F910F91FF9026
:10322000DF90CF90089590E080E00895FC018485C0
:103230009585A685B78544815581668177818417F8
:103240009507A607B70724F484839583A683B783DD
:1032500080859185A285B38544815581668177817A
:10326000481759076A077B0724F484839583A6834C
:10327000B7830895CF93DF93FC01D189C0E021E0AB
:1032800030E040E050E0DC1741F0CF5FAAE0B0E072
:103290000E942C379B01AC01F6CF84819581A681D9
:1032A000B78182179307A407B5076CF0821B930BB5
:1032B000A40BB50B84839583A683B783CF01DF91DD
:1032C000CF910C941619DF91CF910895CF93DF938E
:1032D000FC01D189C0E021E030E040E050E0DC17A3
:1032E00041F0CF5FAAE0B0E00E942C379B01AC0117
:1032F000F6CF84819581A681B781820F931FA41F89
:10330000B51F84839583A683B783CF01DF91CF91C7
:103310000C941619CF93DF93EC010E94C5157983A5
:103320006883DF91CF910895CF93DF93FC012281D1
:103330003381232B69F0EC010E94C5152881398166
:10334000621B730B81E02A813B812617370708F047
:1033500080E0DF91CF9108950F931F93CF93DF9378
:10336000EC018B010E94C515798368831B830A8356
:10337000DF91CF911F910F9108950F931F93CF93DA
:10338000DF93CDB7DEB728970FB6F894DEBF0FBE38
:10339000CDBF8C01DC0117966D917C91CE01019619
:1033A0000E94AC19F80165817681CE0105960E94D4
:1033B000AC19D80119968D919C91892BB9F0F8011F
:1033C00067817085CE0101960E94AC19CE010196ED
:1033D0000E949419D8018823A1F01D96ED91FC91CB
:1033E0001E97309719F012968C91099528960FB672
:1033F000F894DEBF0FBECDBFDF91CF911F910F912B
:1034000008951996ED91FC911A9713966C91139764
:1034100012968C910995833009F440C080F4813074
:1034200009F464C0823059F6D8011B96ED91FC91E5
:103430001C97309721F212968C910995C0CF853058
:10344000F9F090F0863009F0BACFCE0105960E94CF
:103450009419882309F4B3CFD80115966D917C9106
:10346000CE0105960E94AC19F801828190818913E2
:1034700034C0818182838F5F9481891B83839FCF36
:10348000CE0105960E949419882309F498CFF8017B
:1034900065817681CE0105960E94AC19D8011296FD
:1034A0008C91129711969C911197891307C08C915A
:1034B00012968C93129713968C9381CF8F5FF8019D
:1034C00082832381821B990B34813817190611F0EE
:1034D0000CF075CF2F5F238372CF8150828393814D
:1034E000891708F06CCF9150938369CFD80175CFBD
:1034F000962F91708E30C8F48850E82FF0E0EC5C85
:10350000FE4F8081992321F094B1892B84B90895CD
:1035100095B161FF07C0892B85B994B180818095F1
:103520008923F4CF80958923F7CF8E50E82FF0E0E0
:10353000EC5CFE4F8081992321F097B1892B87B9EC
:10354000089598B161FF07C0892B88B997B1808130
:1035500080958923F4CF80958923F7CF8830C0F4F4
:10356000E82FF0E0EC5CFE4F808160FF04C09AB170
:10357000892B8AB908959BB161FF07C0892B8BB94C
:103580009AB1808180958923F4CF80958923F7CFE4
:103590000C94781ACF93DF93EB0190E49093CE01D3
:1035A0001092CF0121ED31E03093CD012093CC0179
:1035B0008093D00190E080E0FC01EE0FFF1FEF52FE
:1035C000FE4F11821082019680349105A9F7F8947C
:1035D0000E94E91380916E008E7F80936E0010929E
:1035E000800010928100109285001092840081E08A
:1035F00080936F0080911B018823E1F1809181000D
:10360000816080938100209741F0D695C795D6952B
:10361000C795D093CB01C093CA018091D00182306D
:1036200098F4E82FF0E0EE0FFF1FE45EFE4F20E677
:103630003CE131832083813071F1809169008C7F7E
:10364000816080936900E89A78948091CF01882303
:10365000E1F34091510250915202609153027091F6
:10366000540281E0452B462B472B09F480E0DF9183
:10367000CF9108958091810083608093810020978D
:1036800061F2CE0166E071E00E94B3397093CB0124
:103690006093CA01C2CF80916900837F8460809368
:1036A0006900E99AD1CF8F929F92AF92BF92CF9249
:1036B000DF92EF92FF92CF9380915102909152024C
:1036C000A0915302B0915402892B8A2B8B2B09F0C5
:1036D000AAC030E020E06FEF7FEF80E090E0A9012A
:1036E0002F5F3F4FF901EE0FFF1FEF52FE4FA081FA
:1036F000B181A436B10568F1440F551FDA01AF520C
:10370000BE4FED90FC901197C4E6EC16F10408F161
:10371000C080D180ED90FC9011970190F081E02D58
:10372000ED90FC901197EE19FF091196FC93EE9322
:10373000FA01EF52FE4F408151816A01F12CE12CD8
:10374000C616D706E806F90620F46081718190E07C
:1037500080E02F33310519F60E9483382AE939E9D0
:1037600049E95FE30E943A390E94543821E030E091
:10377000C12CD12C7601A0E0F901EE0FFF1FEF5212
:10378000FE4F80809180B12CA12C681579058A05A7
:103790009B0538F040815181C40ED51EE11CF11CFF
:1037A000AF5F2F5F3F4F2F33310531F76A2F70E046
:1037B00090E080E00E94853820E034E244E75BE45A
:1037C0000E943A394B015C01C701B6010E9483385F
:1037D0009B01AC01C501B4010E94E2370E9454383C
:1037E000609351027093520280935302909354025B
:1037F00080911B01811117C080915102909152025A
:10380000A0915302B091540226E0B695A7959795E2
:1038100087952A95D1F78093510290935202A093F5
:103820005302B093540280911B01882369F0809168
:10383000510290915202A0915302B09154028032F1
:103840009E44A105B10558F18091D001823068F401
:10385000E82FF0E0813009F1E898EE0FFF1FE45EF9
:10386000FE4F87EB96E19183808310928000109247
:10387000810081E08093CF0180931B0180916E00D5
:10388000816080936E00CF91FF90EF90DF90CF909A
:10389000BF90AF909F908F900895E998DECF1092DF
:1038A0001B018091D00170E060E0CF91FF90EF901C
:1038B000DF90CF90BF90AF909F908F900C94CA1ADA
:1038C0008091CE018823B1F08091CE018150809308
:1038D000CE01E091CC01F091CD01CF010296909301
:1038E000CD018093CC0180918400909185009183DB
:1038F0008083089510925102109252021092530246
:10390000109254020C94531B882331F0CB01BA015E
:103910000E9454386093CF026091CF0270E090E033
:1039200080E00E9483380895882331F0CB01BA01EA
:103930000E9454386093D1026091D10270E090E00F
:1039400080E00E9483380895882331F0CB01BA01CA
:103950000E9454386093D0026091D00270E090E0F1
:1039600080E00E9483380895882331F0CB01BA01AA
:103970000E9454386093CE026091CE0270E090E0D5
:1039800080E00E9483380895882331F0CB01BA018A
:103990000E9454386093C8026091C80270E090E0C1
:1039A00080E00E9483380895882331F0CB01BA016A
:1039B0000E9454386093C7026091C70270E090E0A3
:1039C00080E00E9483380895882331F0CB01BA014A
:1039D0000E9454386093C9026091C90270E090E07F
:1039E00080E00E9483380895882331F0CB01BA012A
:1039F0000E9454386093CA026091CA0270E090E05D
:103A000080E00E9483380895882331F0CB01BA0109
:103A10000E9454386093C4028091C40281110BC08B
:103A200086EA0E948B186091C40270E090E080E00A
:103A30000E948338089587EAF4CFCF93DF938823D9
:103A400031F0CB01BA010E9454386093C3028091D7
:103A5000C3028150803108F08FE0C82FC295C07F2B
:103A600081E80E948B188C2F0E948B18D0E0C138FF
:103A700040F0DC2FD295DF70D850C695C695C6951C
:103A8000C0518BED0E948B188D2F8295807F0E94F4
:103A90008B18C11101C0C1E089ED0E948B1820E193
:103AA000C29FC001112481600E948B186091C302E3
:103AB00070E090E080E00E948338DF91CF9108951C
:103AC000CF938BE194E00E949419882351F0C09128
:103AD00018018BE194E00E948A19C150C370C09311
:103AE0001801C09118018BE80E94B510482F61E2BF
:103AF00082E08C0F0E94C3118BE80E94320E8BE98A
:103B00000E94B510482F61E283E88C0F0E94C31118
:103B10008BE9CF910C94320E0F931F93CF93DF93C9
:103B2000C82FD62F0CE816E0F8011082682F8EE11E
:103B30000E94120E6AE06C0F81E60E948A1284E0F5
:103B4000F801808362E06C0F80E20E94120E68E050
:103B50006C0F80E28D0FDF91CF911F910F910C942C
:103B60008A12CF93DF93D0917906EAE7F6E0C0811D
:103B700081E08C0F808387E20E94320E6C2F8D2FA4
:103B8000DF91CF910C94120E4F925F926F927F92C1
:103B90008F929F92AF92BF92CF92DF92EF92FF925D
:103BA0000F931F93CF93DF93EC0181E0840F68178D
:103BB0000CF46CC0420F46170CF468C0461B498BCE
:103BC0008889481710F08150898B013009F057C05F
:103BD000CE010E9466191091790600917A0686E25C
:103BE00091E00E94F21161E281E00E94120EC70191
:103BF0000E949211602F812F0E94120E01E08DE22F
:103C000091E00E94F2111B8A81E08A8B188219824E
:103C10001A821B828C819D81AE81BF81B7FF07C054
:103C2000B095A095909581959F4FAF4FBF4F182F9E
:103C3000F92FEA2FDB2EE888F12C9AE0492E512C3F
:103C4000612C712CEF1024C08AE0C82ED12CE12CFD
:103C5000F12C13E088892B89821709F45CC039891B
:103C60009A899923A9F18150990B821B91093817E0
:103C7000190681F5002371F10E94B11D2BC00F3F81
:103C800009F0A9CFCE010E943A19A5CF00E0B7CF25
:103C9000288139814A815B81AAE0B0E00E942C37FB
:103CA0004B015C01612F7F2F8E2F9D2DA30192016F
:103CB0000E943F37860E971EA81EB91E88829982E1
:103CC000AA82BB82122FF32FE42FD52EF394BACF02
:103CD000231781F2688179818A819B81A7019601EE
:103CE0000E943F37288339834A835B832B892F5F68
:103CF0002B8BCB010E94B20F8889853008F4AACFA4
:103D00009B89891B612F0E94A7399111A3CF80E263
:103D10000E94320E9FCFDF91CF911F910F91FF90A4
:103D2000EF90DF90CF90BF90AF909F908F907F905B
:103D30006F905F904F900895CF93C82F90E024E04C
:103D4000959587952A95E1F78A3058F0895C0E940D
:103D5000320E8C2F8F708A3030F0895CCF910C94AA
:103D6000320E805DF4CF805DF9CF81E080937B06D9
:103D700080937C0610928C0610928B06E9E7F4E0A3
:103D8000119286E0E937F807D9F786E291E00C94C2
:103D9000F211EFE6F0E080818F7D8083E1E8F0E0D2
:103DA0008081887F8083089560E081E10E94781A95
:103DB00080B78B7F80BF0C94C91ECF92DF92EF92A9
:103DC000FF92CF93DF9380917A008F7780937A0070
:103DD00080B7806880BF809164008FEF809364001B
:103DE0001092000129E084E690E0A0E0B0E058E104
:103DF000C0900401D0900501F12CE12CC816D90621
:103E0000EA06FB0608F05FC0E22FF0E0422F4770A1
:103E10004860322F330F330F3072342BEE0FFF1FF9
:103E2000EC5FFE4FEF01C080D180F12CE12CC81671
:103E3000D906EA06FB0608F07CC0409103014D7FDD
:103E400041F040917A004F7740937A0040B7406844
:103E500040BF2A3070F40FB6F894A89550936000D4
:103E60000FBE30936000409160004064409360005A
:103E7000A89543B7417F60910301462B43BF43B7E9
:103E8000416043BF40910201442309F44BC0789440
:103E9000889543B74E7F43BF4091640040FD08C002
:103EA00040917A00406840937A0040B74F7740BF16
:103EB00068817981861B970BA109B10940910001A6
:103EC000442309F4B0CF209101012223C1F0409195
:103ED000BB025091BC026091BD027091BE024C5970
:103EE0005F4F6F4F7F4F481B590B6A0B7B0B409303
:103EF000BB025093BC026093BD027093BE028091DE
:103F000064001092640080917A00806880937A0047
:103F100080B78F7780BFDF91CF91FF90EF90DF90D8
:103F2000CF900895F89445B7406645BF4F7D45BF93
:103F3000AECF21505DCF882359F08091C502809388
:103F40006001882329F01092AA018FEA0E948B1841
:103F50008BE294E00E9494198823C1F08BE294E0F4
:103F60000E948A198091C5029091C602892B71F036
:103F700080916001882321F0815080936001089531
:103F800081E08093AA018EEA0C948B18089588230F
:103F900079F0CB01BA010E9454388AE0689FB001E1
:103FA00011247093C6026093C50281E00E949B1F9A
:103FB0008091C5029091C6026AE070E00E94B33918
:103FC00090E080E00E9483380895CF93DF930E94B1
:103FD000D115C091AA01C093610160915A0490E08B
:103FE00080E025E0861708F0BFC0289FF001299FD8
:103FF000F00D1124E15AFB4F308133FD05C034FD33
:1040000003C0019635FFEECF81E00E949B1FCC23B9
:1040100009F446C0D5E0C5E040915A0430E020E004
:104020002417D0F4C9012F5F3F4FD89FF001D99FCB
:10403000F00D1124E15AFB4F508155FFF1CFC29F83
:10404000F001C39FF00D1124E95AFB4F80818823B2
:1040500019F00E94D115E0CF90E080E055E0841780
:1040600008F085C0589FF001599FF00D1124E15AC6
:10407000FB4F3081232F30FB21F9237E2F7D2083BE
:104080000196EDCF80E02AC080E046C08FE194E049
:104090000E948A19CC2309F463C0C093AE0160C0AA
:1040A00060915A0430E020E095E0261758F7A90106
:1040B0002F5F3F4F949FF001959FF00D1124E15A1F
:1040C000FB4F808183FFF1CF877F8083929FF00138
:1040D000939FF00D1124E95AFB4F80818093AE012C
:1040E00050E040E095E0461778F69A014F5F5F4F49
:1040F000929FF001939FF00D1124E15AFB4F8081B4
:1041000084FFF1CF8F7E8083949FF001959FF00D07
:104110001124E95AFB4F80818093A80130E020E010
:1041200045E02617A8F4C9012F5F3F4F489FF001D3
:10413000499FF00D1124E15AFB4F508155FFF1CFFB
:10414000429FF001439FF00D1124E95AFB4FC081BB
:10415000C093AF018FE194E00E949419811196CF32
:1041600081E0DF91CF91089580E00E949B1F80E065
:10417000F8CF20915A04253020F530E095E0929F49
:10418000F001939FF00D1124DF01A95ABB4F149643
:104190008C932F5F3F4F929FD001939FB00D1124BE
:1041A000A95ABB4F6C93E15AFB4F908191609B7F62
:1041B000908362E00E94AE1A80915A048F5F8093D0
:1041C0005A040895CF939091CF02992369F0C82F94
:1041D00061E089E00E94781A81E0C11182E090914B
:1041E000CF02981719F0299ACF9108952998FCCFFA
:1041F000CF93DF93D82F80E30E94B51093E0D99F2F
:10420000900111242A5F3F4F90E00196C0E8289F5B
:10421000C01911248CE20E94B510282F30E02F5FC6
:104220003F4FDE5FD29FC0191124CF5FC695C09368
:10423000790681E080937A06DF91CF910895FF920D
:104240000F931F93CF93DF93F82E062F142FE901BE
:1042500081E0283E334008F080E00E94F82082E0B0
:10426000809388068F2D90E00E94B20F83E20E9417
:10427000320E802F90E00E94B20F83E20E94320E35
:10428000812F90E00E94B20FC83E83E0D80748F427
:1042900083E0809388068CE20E94320ECE010E9459
:1042A000B20F81E080938806DF91CF911F910F912B
:1042B000FF9008958823B1F18091CE02882391F177
:1042C00080E1809381001092800081E080936A01F8
:1042D00080EA9FE090936901809368019093870042
:1042E0008093860081E18093810061E08AE00E94F2
:1042F0003C158091800080628093800080916801ED
:1043000090916901B0E0A0E0B695A7959795879543
:1043100090938B0080938A0080916A0180618093E2
:104320008100089580E180938100809180008F7DDD
:104330008093800061E08AE00E94781A2A980895AC
:1043400010927B0180E00C945A2180917B0188239C
:10435000B1F087E294E00E949419882381F087E20B
:1043600094E00E948A1980917A01815080937A01A9
:10437000882319F081700C945A210C94A02108957F
:1043800085ED8093BC008091030390910403A0917C
:104390000503B09106030796A11DB11D23E0B69554
:1043A000A795979587952A95D1F72091BC0024FD74
:1043B00003C0109201030895409103035091040338
:1043C0006091050370910603452B462B472B69F33B
:1043D0000097A105B10541F025E32A95F1F700000A
:1043E0000197A109B109E1CF809102030C94FD1658
:1043F0000F931F93CF93DF9303EC12E0C0E2D0E062
:10440000F80161918F016095CE010E94FF362196DF
:10441000CF32D105A9F7DF91CF911F910F91089568
:10442000009751F0BC0142E150E088EB91E00E941E
:10443000EE3688EB91E0089590E080E00895CF9209
:10444000DF92EF92FF92CF93DF936B017C01D42F29
:1044500080E20E94B510CDE7C81B8CE799E10E946D
:1044600010220E94A511C81BC701B6010E94CF10DF
:10447000C81BC701B6010E94CF10482F6D2F8C2F8B
:1044800086950E94C311C701B6010E94ED0F80E21C
:104490000E94320E8CE799E10E941022DF91CF91A9
:1044A000FF90EF90DF90CF900C949211811108C093
:1044B0008BE999E10E94102241E26FEF0C94DD112B
:1044C00080EA99E1F7CFEF92FF920F931F93CF937A
:1044D000DF93EC01062FCA01B901023019F428E07C
:1044E00020938B062881223011F42093880628819E
:1044F00010E0233060F44E81002309F441C00E9493
:104500003F1010E010928B0660E070E0CB012D812F
:10451000211103C060E070E0CB012881222319F152
:10452000E980FA80E114F104F1F0209791F1233051
:1045300060F13B812C81321741F10E945438E62F03
:10454000F0E0EE0FFF1FEE0DFF1D6591749142E14B
:1045500050E088EB91E00E94EE3688EB91E000237A
:10456000D9F00E94921181E08093880610928B0608
:10457000812FDF91CF911F910F91FF90EF900895C0
:104580000E940E1112E0180FBDCFC7010E94102229
:10459000E6CF90E080E0E3CF0E94A5111E5F180FE8
:1045A000E2CFCF93DF93E091C702F0E0EE0FFF1F61
:1045B000E95AF54E6591749142E150E088EB91E043
:1045C0000E94EE36C8EBD1E020E030E0A901E9918D
:1045D000EE2391F0AAE0B0E00E942C372E2FEE0FD0
:1045E000330B20533109032E000C440B550B260FBF
:1045F000371F481F591FEBCFCA01B901DF91CF9177
:1046000008952F923F924F925F926F927F928F9276
:104610009F92AF92BF92CF92DF92EF92FF920F9351
:104620001F93CF93DF93CDB7DEB7C856D1400FB6F7
:10463000F894DEBF0FBECDBF6CE271E0CE01815AAF
:104640009E4F0E94AC190E94B51E0E94D12241E0EB
:104650000E941F2280E20E94B510880F1DE7181BE0
:104660008CE899E10E9410220E94A511181B8BE092
:104670009AE10E9410220E94A511181B6EE571E0BC
:1046800080E090E00E94CF10181B812F61E2869598
:104690000E94120E8BE09AE10E9410220E94921159
:1046A00080E20E94320E8EE591E00E94B20F80E21D
:1046B0000E94320E8CE899E10E9410220E94921111
:1046C0000E94A51868EE73E080E090E00E949215C9
:1046D00060E089E00E943C1500E110E0712C612C43
:1046E000F12CE12C20E03EE5232E33243394802E60
:1046F000912CC101B4010E94C739562E580E852D48
:1047000090E0CD59DE4F99838883C356D1404090C5
:1047100062014420A9F1211104C00E94D1220E940B
:10472000A40DCE01815A9E4F0E948A198BE293E01C
:104730000E943A13892B09F4FAC0CE01815A9E4F88
:104740000E9494198111F3C09DE5691691E07906E4
:1047500018F42FEF621A720A8BE293E00E9418138A
:1047600097012F5F3F4FE1E0F0E0EC0FFD1FEE0DF2
:10477000FF1D8083C901B1010E94B3397C01D6CFEE
:104780000E94E9138091AA018111B1C00E94B51E57
:1047900090E080E03DE5631631E0730609F4C7015F
:1047A000212F30E0CB59DE4F39832883C556D140C5
:1047B000019F800D911D1124B1010E94B3396C013C
:1047C000C401880F991FC959DE4F99838883C75642
:1047D000D140B12CA12C9DE5691691E0790618F421
:1047E000C614D704E8F5C501B4010E94B339892B7A
:1047F00081F4E0918906F0918A06948180917C068B
:10480000989F800D1124869F602D112480E00E94C6
:10481000120EE1E0F0E0EC0FFD1FEC0DFD1D8081BC
:10482000003109F08CC08A3009F084C08EEB0E9400
:10483000320E2FEFC21AD20A3EE5C31631E0D3067C
:1048400011F4D12CC12C8FEFA81AB80AC959DE4F28
:1048500028813981C756D1402A153B0509F0BBCFC5
:1048600080916201882309F46EC0CD59DE4F6881C2
:104870007981C356D14061507109072E000C880B15
:10488000990B0E9485389B01AC0160E070E084EFD9
:1048900092E40E94E2374B015C01109279063BE101
:1048A00030937A066FE18FE70E948A12C501B40146
:1048B0000E94543882E0D82ED60ECB59DE4F288184
:1048C0003981C556D140B901330F880B990B0E942D
:1048D0008538A50194010E943A390E9454386E5FD0
:1048E0002D2D4DE180E00E9410120E94A5180E941B
:1048F000E51F8823D1F08091A801853009F44BC0D1
:104900002091AE01CD59DE4F88819981C356D140A7
:104910000297253039F521E030916201311120E014
:1049200020936201181719065CF5242DE0CE44246B
:10493000439428CF803208F07ACF8FE778CF0E9457
:104940009C1E80E274CF0E94C51524EF31E040E048
:1049500050E00E943F376A3F71058105910508F4D8
:1049600084CFC3CF233021F41123E1F21150DACFE9
:10497000412F50E0243039F41F5F4817590794F253
:104980001EEF150DD2CF213021F0223059F606E06E
:10499000C9CF00E1C7CF0E94E913C859DE4F0FB657
:1049A000F894DEBF0FBECDBFDF91CF911F910F9165
:1049B000FF90EF90DF90CF90BF90AF909F908F903F
:1049C0007F906F905F904F903F902F900895FF924F
:1049D0000F931F93CF93DF939091AA01992351F1E5
:1049E0000E94DD1E0E94E51F882309F46FC180919B
:1049F000AF01853009F476C1813009F466C1823097
:104A000009F46AC1833009F460C1843009F464C1D7
:104A10008091AE01853009F461C1813009F460C133
:104A2000823031F0833009F45BC1843009F05AC11F
:104A300083E04CC195E0899FB0011124665D754EFD
:104A400045E050E080EB91E00E94EE3680EB91E093
:104A50009093B6018093B5010E94B51E8091B30179
:104A60009091B4010E94102241E26FEF0E94DD118B
:104A70000E94601DC091AB01CC2309F49DC091E060
:104A80009093790610927A06CB57D3E08C2F0E9430
:104A9000320E80917906815080937906D150B1F71A
:104AA0000E94C51572FBDD27D0F98FE294E00E94C9
:104AB0009419882371F18FE294E00E948A198EE4A0
:104AC00080937C0080E230E020E06BE173E0FB014A
:104AD0003197F1F790917A00906490937A009091D9
:104AE0007A0096FDFCCF9091780040917900542F88
:104AF000492F240F351F815051F750E040E060E00E
:104B000076E787E292E00E943F373093AD01209331
:104B1000AC018091AC019091AD019C0150E040E06E
:104B20008F366FE0960708F45DC028563041410982
:104B30005109ACEEBFEF0E943A3726E03FEF4FEF4E
:104B40005FEF0E940D37BA01A9014C595F4F6F4FBB
:104B50007F4F042F152F0536110510F004E610E0E5
:104B6000F02EB80190E080E00E94CF10CCE7C81B87
:104B700085E20E94B510C81BC093790610927A0690
:104B8000C8010E94B20F85E20E94320E80E20E94AC
:104B9000B510C81B8CE90E94B510C81BC0937906DC
:104BA00010927A06309982C085EAD11189C09FE0BF
:104BB000901708F480C086C086E80E94B510282FA0
:104BC000220F280FE0918906F0918A068481409196
:104BD0007C06849F400D1124469561E080E00E9490
:104BE00010125ECFBC016B507F4064367105A8F493
:104BF0002E563F4041095109ACEEBFEF0E943A37B3
:104C00002CE93FEF4FEF5FEF0E940D37BA01A9018A
:104C1000405B5F4F6F4F7F4F9CCFBC01675A7E4018
:104C200064367105A8F42A503F4041095109ACEEA1
:104C3000BFEF0E943A372CE93FEF4FEF5FEF0E9442
:104C40000D37BA01A901445C5F4F6F4F7F4F81CF91
:104C500085579E40C297A8F4265A3E404109510903
:104C6000ACEEBFEF0E943A372EEC3FEF4FEF5FEF15
:104C70000E940D37BA01A901485D5F4F6F4F7F4F0A
:104C800068CF24573E4041095109ACEEBFEF0E9466
:104C90003A372CE73CEF4FEF5FEF0E940D37BA0138
:104CA000A9014C5E5F4F6F4F7F4F53CF8FE080174E
:104CB00010F0DD2339F08F2D6CE00E94A739845667
:104CC0000E94320E0E94A5188DCE86E0DF91CF9112
:104CD0001F910F91FF90089585E0F8CF82E0F6CF05
:104CE00084E0F4CF80E0F2CFCF93DF93CDB7DEB78F
:104CF0002F970FB6F894DEBF0FBECDBF8093B701DC
:104D000095E0899FB0011124665D754E45E050E045
:104D100080EB91E00E94EE36E0EBF1E0F093B6011B
:104D2000E093B501808181501F861E861D861C86FA
:104D300019821B821C828A838D8384EB96E29B8777
:104D40008A8784EF91E09F838E8319861886CE012F
:104D500001960E94BD192F960FB6F894DEBF0FBEC4
:104D6000CDBFDF91CF9108952F923F924F925F92E6
:104D70006F927F928F929F92AF92BF92CF92DF926B
:104D8000EF92FF920F931F93CF93DF93CDB7DEB7D0
:104D9000C254D1090FB6F894DEBF0FBECDBF8DAFA0
:104DA000C090AA01CC2049F00E94DD1E0E94E51FA0
:104DB00081110C94223180E0E5C1A090B70127E079
:104DC0002A1508F4CDC1EA2DF0E0E751F94D0C9415
:104DD000DB39F126DC280C2A8A2C6A2DCB2DCE2D2E
:104DE000522FFF24F394EAE04E2E512C612C712CAB
:104DF000F3E02F2EEE24E3948091AA01882309F496
:104E000089C00E94DD1E0E94E51F882389F09091D1
:104E1000AB018091A801853009F49BC18091AE015E
:104E2000853009F05FC181E0911180E08093AB0192
:104E30008090E3039090E403A090E503B090E60334
:104E4000009119018091AB01882309F46CC124E021
:104E500030E0013051F022E030E0013030F030E05D
:104E600020E0023011F421E030E0809167018017EA
:104E7000F1F03093460420934504809133049091DF
:104E800034042230310509F45EC108F050C12130EC
:104E9000310509F456C18D7D806C90933404809364
:104EA000330480913304909134040E945214809111
:104EB000630190916401A0916501B091660188162B
:104EC0009906AA06BB06D9F0C501B4010E94833831
:104ED00020E030E040E251E40E94E237AB01BC0147
:104EE00090E080E00E94D6148091330490913404C5
:104EF000977F90933404809333040E94521400935C
:104F000067018092630190926401A0926501B09262
:104F1000660172CF0091AB010E94B51E802F0E94E6
:104F2000562280911901833014F01092190180915A
:104F3000190187FF03C082E08093190182E080930A
:104F40007906F0927A068091190176E8D72ED80E6C
:104F500003E08D2D0E94320E80917906815080935E
:104F600079060150B1F761E281E00E94120E1B3018
:104F7000DCF011E099E0911B9093F0038091EF0336
:104F8000981718F081508093F0036DE6A62E69E122
:104F9000B62EF5018491FFEFAF1ABF0A882309F4FA
:104FA0008EC00E94320EF5CF111614F41A3011F78C
:104FB00086EE99E10E9410220E94921186E0809371
:104FC0008C06F0927906F0927A066CE080E20E94FC
:104FD0008A121AE08DE291E00E94F2111092F2031F
:104FE0001092F1038091E3039091E403A091E50313
:104FF000B091E6038093DF039093E003A093E10375
:10500000B093E20300E88091EF03D090F2038D1596
:1050100009F461C02091F0039091F103992309F400
:1050200055C08150990B8D1991092817190609F05F
:1050300050C0332433941A3009F44BC06091DF031D
:105040007091E0038091E1039091E203A30192014A
:105050000E943F374B012093DF033093E0034093DE
:10506000E1035093E203D394D092F2030E94CF1055
:105070008095080F00937906E0927A0631100E941D
:10508000B11DC4010E94B20F8091EF039091F20311
:10509000891B873019F48CE20E94320E8091EF0355
:1050A0009091F203891B622D0E94A739923009F07A
:1050B000AACF8CE20E94B5100150081BA4CF85E84E
:1050C00099E10E9410220E94921184CF2D1509F4BB
:1050D000B0CF312CB3CF86E291E00E94F2110E9452
:1050E000A51891CE833051F4809119018F5F1A3049
:1050F00060F48FED93E00E9466199ACE843069F4D3
:105100001A3030F08091190181508093190190CEAE
:105110008FED93E00E943A198BCE813011F00C9400
:105120005731115085CE30E020E00FEF9ECE233076
:10513000310561F02430310509F0ADCE8F71826008
:10514000ACCE8D71AACE8D738862A7CE8573806236
:10515000A4CE992329F0809119018F5F8093AB0130
:10516000E091B501F091B601BDADA4E0BA9FC001D8
:10517000112461817281680F791F6115710509F031
:105180001BC781E0CE5BDF4F0FB6F894DEBF0FBECA
:10519000CDBFDF91CF911F910F91FF90EF90DF90E6
:1051A000CF90BF90AF909F908F907F906F905F90C7
:1051B0004F903F902F9008950E94E913D12C712CAD
:1051C000512C17E0BB24B39445E0642E88248A94C4
:1051D000982C8091AA01811142C00E94B51E872D92
:1051E0000E9456221C300CF01A2D11160CF01BE0F8
:1051F000B0927906B0927A068CEE99E10E94102264
:105200007C010D2D27E040E0612F87E094E00E94B3
:10521000C41D24E0209388066091F7037091F80381
:105220008091F9039091FA03882799270E94CF1063
:105230003FE7381B30937906B0927A06B092880621
:1052400083EF99E10E9410227C0124E047E0612F66
:1052500083EF93E00E94C41D0E94A518D12C7720F3
:1052600009F4AFC0552009F469C040910B04509176
:105270000C0460910D0470910E0480E18093810014
:1052800010928000DB01CA0133E0880F991FAA1F2A
:10529000BB1F3A95D1F70097E1E0AE07B10538F4AE
:1052A000B0926A0190936901809368010EC00097E3
:1052B000F8E0AF07B10508F053C022E020936A017F
:1052C0007F715093690140936801809168019091CA
:1052D0006901909387008093860080916A018061C4
:1052E000809381002090F7033090F8034090F903F9
:1052F0005090FA0361E089E00E943C1580918000A3
:10530000806880938000A0916801B0916901A2013A
:105310009101442755270E942C37EAE096958795FE
:1053200077956795EA95D1F7709389006093880027
:1053300080916A01806180938100512C0E94E51F59
:10534000882309F446CF8091A801853009F457C01D
:105350008091AE01853009F03FC091E0792639CFC8
:10536000009730E4A307B10558F4E3E0E0936A0145
:1053700026E0B695A795979587952A95D1F792CF70
:105380000097A105F1E0BF0740F424E020936A01F3
:10539000892F9A2FAB2FBB2785CF60926A01009788
:1053A000A10534E0B30740F4FAE0B695A7959795C8
:1053B0008795FA95D1F776CF90926901809268012E
:1053C00084CF80E180938100809180008F778093EB
:1053D000800055245394B2CF833021F4D3945524C4
:1053E0005394F7CE843011F4DA94F9CF813011F46C
:1053F0001150EFCE823009F0ECCE1F5FEACE80E193
:1054000080938100809180008F778093800060E09E
:1054100089E00E943C15A4CE6EE470E0CE010196B6
:105420000E94AC19109276011092770110927801C7
:105430001092790160E087E00E94AE1A61E081E19C
:105440000E94781A439A80917B008F7B80937B0027
:1054500080917F008D7F80937F0080B7806480BFC4
:1054600080B7846080BF10928000109281001092FB
:10547000820080916F008E7F80936F008091810009
:10548000806880938100CE0101960E948A19412C88
:10549000A0E44A16F1F0CE0101960E9494198823E7
:1054A000B9F3CE0101960E948A190E94B51E11E03F
:1054B000140D642D85E00E948C1D8AEF99E10E94F5
:1054C000102241E26FEF0E94DD110E94A518412ECB
:1054D000DFCFD12C10E000E0F12CE12C52E7852E3B
:1054E00051E0952EAA24A394B12C8091AA0188237F
:1054F00099F00E94DD1E0E94E51F882331F0809103
:10550000AE01853011F481E0D8268091A801853064
:1055100061F70E94D41E24CEDD2009F4BCC10E9494
:10552000B51E89EB99E10E9410224FEF6FEF0E94A8
:10553000DD110E94A51862E370E080E090E00E9417
:10554000921500B602FE29C11092760110927701E1
:10555000109278011092790135E2E32E31E0F32EBA
:1055600045E0742E20E030E44CE156E46091760191
:105570007091770180917801909179010E9435397D
:1055800024E6522E18160CF05D2C10927601109223
:1055900077011092780110927901612CB2E0B093FA
:1055A0006D0190926C0180926B0183E294E00E9405
:1055B0008A19F7018081B50102C0660F771F8A95AD
:1055C000E2F790E080E00E9483389B01AC0160E04C
:1055D00074E284E79BE40E94E23760936E0170936B
:1055E0006F01809370019093710110928500109269
:1055F000840080918100872980938100B59A8091F1
:105600006F00806280936F0080916D01882331F07C
:1056100083E294E00E9494198823B1F30E94C91E8A
:105620000091740110917501809172019091730144
:10563000081B190B83E294E00E949419882349F017
:1056400010927601109277011092780110927901F0
:10565000A4C0F1E07F121FC020917201309173014C
:1056600080917401909175012817390769F480E0E1
:1056700094E2A4E7BBE48093760190937701A09332
:105680007801B093790189C0809172019091730182
:10569000892B09F483CF2091740130917501809199
:1056A00072019091730128173907A9F101151105AD
:1056B00059F1B80190E080E00E9483382DEC3CEC79
:1056C0004CE45DE30E9470379B01AC0160916E0178
:1056D00070916F0180917001909171010E94E23789
:1056E0009B01AC0160917601709177018091780106
:1056F000909179010E9471376093760170937701E0
:105700008093780190937901639421E0721203C031
:10571000561408F043CF662D70E090E080E00E94C0
:10572000853825ED39E040E85FE30E94E2379B01D0
:10573000AC01609176017091770180917801909130
:1057400079010E94E2371B012C01209276013092F0
:1057500077014092780150927901D7018E917D01B5
:10576000B50102C0660F771F8A95E2F790E080E0EE
:105770000E9483389B01AC0164EF74E284E793E4F8
:105780000E94E2379B01AC01C201B1010E94DD37EA
:1057900087FD03C07A947110E5CE109176010091D7
:1057A0007701F0907801E090790120E03EE547E153
:1057B00058E4612F702F8F2D9E2D0E943539712C4A
:1057C000181644F410E00CE7B2E1FB2E88E4E82E52
:1057D0009EE3792E512C2AE939EF49E754E4612FF1
:1057E000702F8F2D9E2D0E943539181684F420E0DD
:1057F00030E04AE754E4612F702F8F2D9E2D0E94D8
:10580000E237162F072FF82EE92E5394E4CF212EDE
:10581000302E4F2CDE2CA3E06A2E2AE037ED4FE12C
:1058200051E4B101842D9D2D0E943539181674F470
:1058300020E030E040E251E4B101842D9D2D0E9432
:10584000E2371B01482ED92E6A94E7CF462D612FEF
:10585000702F8F2D9E2D0E940E11F0E84F2E481AAA
:1058600080E20E94B510481A84E899E1511002C004
:1058700085E899E10E9410220E94A511481A77201C
:1058800049F0872D0E94B510D82E80E20E94B510F5
:105890008D0D481A46940E94B51E80E00E94562243
:1058A0002FE632E143E85AE3612F702F8F2D9E2DB2
:1058B0000E94353918162CF54092790681E08093C4
:1058C0007A06772031F0872D0E94320E80E20E9406
:1058D000320E462D612F702F8F2D9E2D0E943F106E
:1058E00080E20E94320E84E899E1511002C085E8FE
:1058F00099E10E9410220E9492110E94A518D12CB9
:10590000FACD8AED99E10E94102241E06FEF0E94EA
:10591000DD11F3CF00E0E12C212CE4E23E2EE4EF98
:105920004E2E512C0E94B51E1F2DEE2009F447C0AB
:1059300000E06091C90270E090E080E00E94921562
:105940002091CA0230E0A0E1B7E20E9461379B01DA
:10595000AC01C201B1010E943F3720513109410918
:10596000510956954795379527952093B800E1E062
:10597000E0930703E09229031092080310922A0390
:105980000E941E17811108C0E1E0F0E0EC0FFD1F3E
:10599000E00FF11DE0820F5F61E070E080E090E0D9
:1059A0000E949215F5E0F093B8006E2D66958AE09E
:1059B0000E948C1D0E94A518083018F110E0F0908C
:1059C000AA01FF2019F10E94DD1E0E94E51FE82EAA
:1059D000882391F08091AE01EE24E394853029F084
:1059E000813009F06AC01150E12CFF24FA94F00EC6
:1059F000F1160CF067C010E0F12E66C0BCE3EB12AC
:105A000098CFE39420E8E212F9CFD8CF002309F42D
:105A10003EC0CE0101965C01EE24E394D501DD90F9
:105A20005D01F11247C061E281E00E94120E67E061
:105A3000662E712C8D2C912CC401062C02C09595DC
:105A400087950A94E2F781700E94320EB1E06B1ADA
:105A5000710890F782E60E94320E61E280E40E94B3
:105A6000120EC4010E94B20F84E60E94320EF8E0CA
:105A7000F0938B06E092790610927A068D2D0E94A3
:105A80009C1EF39420E1E20E0F11C8CF10C08BEAE8
:105A900099E10E94102241E06FEF0E94DD118BE935
:105AA00099E10E94102241E26FEF0E94DD110E94F5
:105AB000A5188BCF10928B06DDCF823009F094CFE2
:105AC0001F5F92CF17FF98CF8091A801853009F012
:105AD00029CF46CB10E058EEE52E53E0F52E0E947C
:105AE000B51E8091AA01882389F00E94DD1E0E94C4
:105AF000E51F882331F08091AE01853011F481E0FB
:105B000018278091A801853051F72ACB1123D1F0B5
:105B100089EB99E10E9410224FEF6FEF0E94DD1197
:105B20000E94A51862E370E080E090E00E94921568
:105B30008091C8028E9DB0018F9D700D112480E070
:105B40000E94CA1A8091CF018130E1F46091510224
:105B50007091520280915302909154026115710527
:105B60008105910579F040E00E941F228BE999E1BF
:105B70000E94102241E26FEF0E94DD110E94A518E1
:105B800010E0B5CF8BEC99E10E94102241E06FEF5D
:105B90000E94DD11EBCF0E940123E2CA8091CB026B
:105BA00090E0B0E0A0E012E019AF19AA1AAA1BAA6F
:105BB0001CAA43E650E060E070E04DAB5EAB6FAB1B
:105BC00078AF8DA79EA7AFA7B8AB1CAE1AAECE011B
:105BD00089960E9416198091CC0290E0B0E0A0E076
:105BE0001DA31D8E1E8E1F8E18A23BE3432E512C2B
:105BF000612C712C49A25AA26BA27CA2898F9A8F28
:105C0000AB8FBC8F18A61EA2CE0145960E94161916
:105C10008091CD0290E0B0E0A0E0198B19861A8641
:105C20001B861C864D865E866F86788A8D839E8352
:105C3000AF83B8871C8A1A8ACE0101960E94161972
:105C400080E00E94E220B12C712C10E0812C512CBC
:105C5000412C912C4AE0642E0E94A521992009F440
:105C6000B5C00E9470169091DE038091DD03891704
:105C700008F481C09091DC038091DB03891708F45C
:105C80007AC09091DA038091D903891708F473C020
:105C900080E00E94E22051101AC080917B018111A6
:105CA00016C00091D0028091D1028F3720F4880F66
:105CB000815080937A0181E080937B010E945A2178
:105CC000069DB001112487E294E00E94AC19109265
:105CD000D403592C492C8091AA0181111EC00E9425
:105CE000B51E892D0E9456228DE291E00E94F2118C
:105CF000992009F479C0442009F46EC086E291E04D
:105D00000E94F2118DE19AE10E94102241E06FEFB2
:105D10000E94DD110E94A518812C0E94E51F882396
:105D2000E1F08091AE01853009F0ABC09110A5C0C3
:105D30001092D9031092DB031092DD031092D80366
:105D40001092D70381E08093D4030E94C51570930D
:105D5000D6036093D503992493948091A80185304C
:105D600009F07ACF60E089E00E94781A0E94A021B1
:105D70000E94F821F5C981E00E94E2200E94A02142
:105D80007090DE038091DD03781A1091DC0380911E
:105D9000DB03181BB090DA038091D903B81A809105
:105DA000D7039091D803919581959109893E9340AD
:105DB00008F0BA948CE38B1510F4B80E11501D3313
:105DC00010F0145C7A94512C412C85CF80E00E9415
:105DD000E2200E94A0217FCF2FEF3FEF4B2D612FBC
:105DE000872D0E941F2196CF96E09D150CF040C094
:105DF000DD24D39480E00E94F82081E19AE10E94A2
:105E000010227C01082D22E040E06D2DCE01899604
:105E10000E94C41D83E20E94320E85E19AE10E9435
:105E200010227C0122E042E06D2DCE0145960E94B9
:105E3000C41D83E20E94320E89E19AE10E94102281
:105E40007C0122E044E06D2DCE0101960E94C41D2C
:105E50008D81998D2DA52093DE039093DC03809393
:105E6000DA032093CB029093CC028093CD0252CFE1
:105E70001D140CF4BFCFDA2CBDCF1092D403912C9B
:105E80006CCF833011F4839468CF843011F48A94FA
:105E900064CF813011F4DA9460CF823009F05DCFA5
:105EA000D3945BCF1092D4031092D9031092DB03EA
:105EB0001092DD031092D8031092D70362E089E0BC
:105EC0000E94781A6AE070E080E090E00E949215EB
:105ED00013B11695117000E0EE24E3940E94A52101
:105EE0000E9470168091AA01811123C0F090DD03F9
:105EF000D090DB039090D903A090D703B090D80343
:105F00000E94B51E85EA99E10E94102241E262E8F2
:105F10000E94DD11802F0E9456228DE291E00E94A6
:105F2000F2119501492D6D2D8F2D0E941F210E9488
:105F3000A518F3B0F1FAFF24F0F81F250E94E51F21
:105F4000882381F08091AE018530A1F1823051F437
:105F50001092D9031092DB031092DD031092D80344
:105F60001092D7038091A801853009F4F9C8112354
:105F7000E1F00E2500FF1BC0E092D4030E94C5157E
:105F80007093D6036093D50380917B0181110DC07E
:105F9000E0927A01E0927B0181E00E945A2162E363
:105FA00070E087E294E00E94AC191F2D97CF109209
:105FB000D403EACF11E0D6CF44E050E08CE791E083
:105FC0000E94EE360E94B51E80917C0190917D0169
:105FD0000E94102241E26FEF0E94DD110E94601DBD
:105FE00060917E0170917F016115710509F4F6C021
:105FF0004BE150E080E891E00E94EE36E0911A011A
:10600000EDAF8091A901882329F08091A7018F5FCE
:106010008093A70180E8A82E81E0B82E9BE9892E05
:1060200091E0992E84017501D12C20E8322ED70100
:106030001796ED91FC91309751F040E050E0BA0195
:1060400080E00995F8016083718382839383D7018F
:1060500015966C912090A701B1E0BD0D2396BFAFBE
:106060002397662309F4D6C02D1019C0F80140808B
:10607000518062807380FDADF111B9C070E090E095
:1060800080E00E9485389B01AC01C301B2010E94EF
:106090007037D8016D937D938D939C931397D7019F
:1060A00014966C91062E000C770B880B990B0E94AE
:1060B00085382B013C01F7016381062E000C770B1C
:1060C000880B990B0E94853822966CAF7DAF8EAFFE
:1060D0009FAF2297A3019201D8016D917D918D917F
:1060E0009C910E94353918165CF422968CAD9DADBA
:1060F000AEADBFAD2297F80180839183A283B383B5
:10610000D8012D913D914D915C9122966CAD7DAD64
:106110008EAD9FAD22970E94353918162CF4F801E8
:1061200040825182628273822D1010C0FDADF13029
:1061300069F0D7011796ED91FC91309739F0D801AD
:106140004D915D916D917C9181E009958091A701C0
:10615000833010F01092A701F7018081882349F065
:10616000D8012D913D914D915C9160E0C7010E9455
:106170006322381AB9E0EB0EF11C0C5F1F4F239617
:10618000DFAC2397E3E0DE1252CFF0E8F31508F41A
:1061900049C036943092790610927A0611E01C0DAF
:1061A0008091A7018C1509F43FC061E0F501808161
:1061B000882341F0D4012D913D914D915C91C50111
:1061C0000E946322B9E0AB0EB11CE4E08E0E911C7C
:1061D000C12EF3E01F13E2CF0E94F8211092A90113
:1061E00081E080931A010E94A5180C94D626BDADBB
:1061F000B23009F054CF70E090E080E00E94853822
:10620000A30192010E947137F80160837183828338
:10621000938345CF2D109ACF2396BFAD2397B0938C
:10622000A70194CF312CB6CFD50115968C9162E0A1
:106230008111BCCF133019F01093A701B6CF109283
:10624000A701B3CF8091AF01813029F1823031F1C4
:106250008091A801853011F40C94C1288091AE0181
:1062600091E0853009F090E09093A9018130C9F068
:106270008230D1F0833039F480911A018F5F80939E
:106280001A010C94DB26843011F00C94DB268091EB
:106290001A018150F4CF86E00C94C22885E00C945A
:1062A000C22884E00C94C22883E00C94C228823077
:1062B00011F00C9418271F5F0C9418271F920F924F
:1062C0000FB60F9211242F933F934F935F936F93C9
:1062D0007F938F939F93AF93BF93EF93FF938BE243
:1062E00093E00E945A13FF91EF91BF91AF919F915C
:1062F0008F917F916F915F914F913F912F910F906F
:106300000FBE0F901F9018951F920F920FB60F920D
:1063100011242F938F939F93EF93FF93E0913B036F
:10632000F0913C038081E0914103F091420382FDB2
:106330001BC09081809144038F5F8F732091450330
:10634000821741F0E0914403F0E0E55DFC4F958F4A
:1063500080934403FF91EF919F918F912F910F9024
:106360000FBE0F901F9018958081F4CF1F920F924F
:106370000FB60F9211242F933F938F939F93AF9358
:10638000BF938091BB029091BC02A091BD02B091DD
:10639000BE023091BA0223E0230F2D3758F5019643
:1063A000A11DB11D2093BA028093BB029093BC0241
:1063B000A093BD02B093BE028091BF029091C00233
:1063C000A091C102B091C2020196A11DB11D80939E
:1063D000BF029093C002A093C102B093C202BF91CA
:1063E000AF919F918F913F912F910F900FBE0F9082
:1063F0001F90189526E8230F0296A11DB11DD2CF3C
:106400001F920F920FB60F9211242F933F934F9329
:106410005F936F937F938F939F93AF93BF93EF930C
:10642000FF93E0911E01F0911F010995FF91EF91FB
:10643000BF91AF919F918F917F916F915F914F919C
:106440003F912F910F900FBE0F901F9018951F92A4
:106450000F920FB60F9211242F933F934F935F9398
:106460006F937F938F939F93AF93BF93EF93FF931C
:10647000E0911C01F0911D010995FF91EF91BF91F1
:10648000AF919F918F917F916F915F914F913F91CC
:106490002F910F900FBE0F901F9018951F920F9283
:1064A0000FB60F9211248F9381E08093B9020FB63B
:1064B000F894A895809160008861809360001092A4
:1064C00060000FBEA8958F910F900FBE0F901F9088
:1064D00018951F920F920FB60F9211242F933F938E
:1064E0004F935F936F937F938F939F93AF93BF93DC
:1064F000EF93FF938091B900887F803609F44AC0FA
:10650000F0F5883209F4A7C018F5803109F49BC072
:10651000B8F4882309F4F9C0883009F494C0FF91D5
:10652000EF91BF91AF919F918F917F916F915F910B
:106530004F913F912F910F900FBE0F901F90189584
:10654000883109F488C0803251F78093FF0214C06B
:10655000803409F49DC040F48033B9F38833F9F6F0
:106560008093FF0285ECB0C0803509F485C0883582
:1065700009F496C0883499F60E94C021D0CF88399A
:1065800009F48CC038F5883729F050F4883611F0BA
:10659000803729F683E0809301031092B80257C038
:1065A000883809F47BC0803919F0803809F0B7CFFA
:1065B0008091B802803208F071C0E091B80281E0A9
:1065C0008E0F8093B8028091BB00F0E0E856FD4F3B
:1065D00080833DC0803B39F0E0F4803A09F479C013
:1065E000883A09F09CCF84E08093010310929702CF
:1065F00010929602E091D402F091D5020995809113
:10660000960281110FC081E080939602109276026B
:1066100009C0803C09F4A6CF883C09F4A3CF883B8D
:1066200009F07DCFE091970281E08E0F8093970271
:10663000F0E0EA58FD4F80818093BB009091970273
:106640008091960229C08091DC028093BB0085EC8A
:106650008093BC0064CF9091FE028091FD02981758
:1066600058F5E091FE0281E08E0F8093FE02F0E08B
:10667000E352FD4F8081E9CFE091FE0281E08E0F71
:106680008093FE028091BB00F0E0E352FD4F8083D7
:106690009091FE028091FD029817C8F285E8D8CF4C
:1066A000E091FE0281E08E0F8093FE028091BB009C
:1066B000F0E0E352FD4F80838091000381115CCFB5
:1066C00081E08093DB0284EA8093BC001092010396
:1066D00026CF85EC8093BC00109201038091B80214
:1066E000803230F4E091B802F0E0E856FD4F1082BD
:1066F0006091B80270E0E091D202F091D30288E993
:1067000092E009951092B8020ACF1092FF0234CF9E
:106710001F920F920FB60F9211242F933F934F9316
:106720005F936F937F938F939F93AF93BF93EF93F9
:10673000FF938091CA019091CB01892BD1F0809178
:10674000CA019091CB0101979093CB018093CA012C
:10675000FF91EF91BF91AF919F918F917F916F9139
:106760005F914F913F912F910F900FBE0F901F900F
:10677000189581E090E0A0E0B0E080935102909302
:106780005202A0935302B09354020E94531B82E022
:106790008093CF01DDCF1F920F920FB60F9211247D
:1067A0008F939F93EF93FF93E0916B01F0916C01B6
:1067B000CF01029690936C0180936B0180918600CB
:1067C000909187009183808380916D0181508093A7
:1067D0006D01811105C080916F008F7D80936F00E6
:1067E000FF91EF919F918F910F900FBE0F901F908F
:1067F0001895CF92DF92EF92FF92EBE2F3E01382D3
:10680000128288EEC82E83E0D82EE12CF12CC482AF
:10681000D582E682F78280E491E09183808385ECE3
:1068200090E09587848784EC90E09787868780EC5A
:1068300090E0918B808B81EC90E0938B828B82EC4B
:1068400090E0958B848B86EC90E0978B868B118EF5
:10685000128E138E148EE8ECF3E013821282C4823F
:10686000D582E682F78282E591E09183808364E6B7
:1068700070E08FE194E00E94AC1968EC70E08BE16D
:1068800094E00E94AC19E7E0F4E087E0808B10868A
:1068900011861286138680E092E1AAE7B0E0848731
:1068A0009587A687B787C482D582E682F782138A46
:1068B000118ACF010E941619E3EFF3E084E0808B88
:1068C000108611861286138680E094E0A0E0B0E086
:1068D00084879587A687B78780E092E0A0E0B0E044
:1068E00084839583A683B783138A118ACF010E947C
:1068F0001619EFEDF3E089E0808B10861186128681
:10690000138680E09EE0A7E2B7E084879587A6879C
:10691000B78780E197E2A0E0B0E084839583A68307
:10692000B783138A118ACF010E941619E4EDF3E0B0
:1069300010821582178211861482138268E873E12F
:1069400083E294E00E94AC1981E080938806E7E539
:10695000F4E02CEB32E0328321831382EBE5F4E0A8
:1069600099E1DF011D929A95E9F7E3E3F4E010A2C3
:1069700011A29FE092A383A360ED77E08FE294E001
:106980000E94AC1968EE73E08BE294E0FF90EF9008
:10699000DF90CF900C94AC19CF93DF93CDB7DEB7D7
:1069A0002F970FB6F894DEBF0FBECDBF789484B595
:1069B000826084BD84B5816084BD85B5826085BDFB
:1069C00085B5816085BD80916E00816080936E0089
:1069D000109281008091810082608093810080917B
:1069E000810081608093810080918000816080932C
:1069F00080008091B10084608093B1008091B000EC
:106A000081608093B00080917A00846080937A00E6
:106A100080917A00826080937A0080917A00816010
:106A200080937A0080917A00806880937A00109237
:106A3000C10073ECE72E72E0F72E00E210E0C8010F
:106A40000E94F7368095F70181937F010F5F1F4FFA
:106A50000F321105A1F781E00E949B1F0E94A02127
:106A600080EC97E2A9E0B0E08093750490937604FF
:106A7000A0937704B09378041092D7021092D602B4
:106A80000E94DF168AED92E19093D5028093D402A2
:106A90008BED92E19093D3028093D2022091750402
:106AA00030917604409177045091780460E074E26C
:106AB00084EF90E00E943F3720513109410951098C
:106AC00056954795379527952093B8008CE380938A
:106AD000740491E0909307038093290310920803B4
:106AE00010922A030E941E17811120C00FE91AE19B
:106AF0005EEBE52E5AE1F52EF80184910E948B1889
:106B00000F5F1F4FE016F106B9F710928C06109236
:106B10008B0681E080937B0680937C06E9E7F4E0B6
:106B200089E796E011928E179F07E1F70E94A5185A
:106B300010925A0463E084E00E94B92064E086E089
:106B40000E94B92061E088E00E94B92062E085E0FF
:106B50000E94B92065E083E00E94B920809156042C
:106B6000882309F413C11FB7F8948091D8028111CA
:106B700027C0E6EEFAE18491E2EDFAE19491E82F84
:106B8000F0E0EE0FFF1FE254F54EA591B491EC91A9
:106B9000E92321F461E08AE00E94061461E08AE0C2
:106BA0000E943C158CB580618CBD8CB580648CBD19
:106BB00061E08DE00E943C1561E08BE00E943C1595
:106BC0008091D8028F5F8093D8021FBF61E08091CF
:106BD00055040E943C1561E0809155040E94061402
:106BE00080E090E290933404809333040E94521426
:106BF0008091330490913404916090933404809395
:106C000033040E94521440E050E06AE774E490E0DC
:106C100080E00E94D61440E050E06AE774E481E02E
:106C200090E00E94D6141092500410924F041092DB
:106C30003D0410923E0410923F041092400480E004
:106C400090EC0E945214109252041092510410922F
:106C5000410410924204109243041092440480E0D4
:106C600090EE0E945214809133049091340491600C
:106C700090933404809333040E945214809133041F
:106C8000909134049E7F90933404809333040E9447
:106C9000521481E090E090934604809345048091E3
:106CA0003304909134048D719093340480933304B1
:106CB0000E9452148091330490913404977F9093F2
:106CC0003404809333040E945214809133049091D1
:106CD00034049B7F90933404809333040E945214B5
:106CE000109246041092450480913304909134042C
:106CF0008D7D806C90933404809333040E945214F1
:106D000062E08EE00E94781A0E94D41E40E050E0BB
:106D1000BA0180E00E941D1D40E050E0BA0180E011
:106D20000E94041D60E072EC81E090E00E94A40DDE
:106D300018E084E7E82E86E2F82E97EEC92E94E25A
:106D4000D92E24EFA22EBB24B39430E0832E30E062
:106D5000932E1F861E8619821B821C821A831D8316
:106D6000FD86EC86DB86CA86BF82AE8219861886CF
:106D7000CE0101960E94BD198114910451F30E9425
:106D80004613882331F30E940000E3CF61E0809135
:106D900053040E943C1560E0809154040E94061444
:106DA00061E0809154040E943C1510CF80915604FC
:106DB000882399F09FB7F8948091D802882319F01E
:106DC00081508093D8028091D802811105C08CB582
:106DD0008F7B8CBD1092DA029FBF0895FB01DC010E
:106DE00002C005900D9241505040D8F70895F9998E
:106DF000FECF92BD81BDF89A992780B50895262FC0
:106E0000F999FECF1FBA92BD81BD20BD0FB6F8948F
:106E1000FA9AF99A0FBE01960895052E97FB1EF473
:106E200000940E94243757FD07D00E943F3707FC8B
:106E300003D04EF40C94243750954095309521950D
:106E40003F4F4F4F5F4F0895909580957095619596
:106E50007F4F8F4F9F4F08950E946137A59F900DE0
:106E6000B49F900DA49F800D911D11240895B7FF2C
:106E70000C942C370E942C37821B930B0895A1E2AF
:106E80001A2EAA1BBB1BFD010DC0AA1FBB1FEE1FA4
:106E9000FF1FA217B307E407F50720F0A21BB30BEF
:106EA000E40BF50B661F771F881F991F1A9469F76B
:106EB00060957095809590959B01AC01BD01CF01C7
:106EC0000895A29FB001B39FC001A39F700D811DC3
:106ED0001124911DB29F700D811D1124911D0895E3
:106EE0005058BB27AA270E9488370C94FB380E9471
:106EF000ED3838F00E94F43820F039F49F3F19F44F
:106F000026F40C94EA380EF4E095E7FB0C94E43890
:106F1000E92F0E940C3958F3BA17620773078407E8
:106F2000950720F079F4A6F50C942E390EF4E0952F
:106F30000B2EBA2FA02D0B01B90190010C01CA0133
:106F4000A0011124FF27591B99F0593F50F4503EDE
:106F500068F11A16F040A22F232F342F4427585FD0
:106F6000F3CF469537952795A795F0405395C9F7E8
:106F70007EF41F16BA0B620B730B840BBAF09150A0
:106F8000A1F0FF0FBB1F661F771F881FC2F70EC03F
:106F9000BA0F621F731F841F48F487957795679512
:106FA000B795F7959E3F08F0B0CF9395880F08F0FE
:106FB0009927EE0F9795879508950E94C03808F499
:106FC00081E008950E94F6370C94FB380E94F43853
:106FD00058F00E94ED3840F029F45F3F29F00C94FE
:106FE000E43851110C942F390C94EA380E940C3972
:106FF00068F39923B1F3552391F3951B550BBB27E8
:10700000AA2762177307840738F09F5F5F4F220F2C
:10701000331F441FAA1FA9F335D00E2E3AF0E0E823
:1070200032D091505040E695001CCAF72BD0FE2F6D
:1070300029D0660F771F881FBB1F26173707480701
:10704000AB07B0E809F0BB0B802DBF01FF279358B9
:107050005F4F3AF09E3F510578F00C94E4380C9461
:107060002F395F3FE4F3983ED4F386957795679583
:10707000B795F7959F5FC9F7880F911D96958795EE
:1070800097F90895E1E0660F771F881FBB1F62170D
:1070900073078407BA0720F0621B730B840BBA0BCB
:1070A000EE1F88F7E09508950E94143988F09F57E5
:1070B00098F0B92F9927B751B0F0E1F0660F771F1C
:1070C000881F991F1AF0BA95C9F714C0B13091F012
:1070D0000E942E39B1E008950C942E39672F782F35
:1070E0008827B85F39F0B93FCCF3869577956795D7
:1070F000B395D9F73EF490958095709561957F4F43
:107100008F4F9F4F0895E89409C097FB3EF49095E8
:107110008095709561957F4F8F4F9F4F9923A9F070
:10712000F92F96E9BB279395F695879577956795FF
:10713000B795F111F8CFFAF4BB0F11F460FF1BC043
:107140006F5F7F4F8F4F9F4F16C0882311F096E9D6
:1071500011C0772321F09EE8872F762F05C0662384
:1071600071F096E8862F70E060E02AF09A95660F3D
:10717000771F881FDAF7880F9695879597F90895F6
:10718000990F0008550FAA0BE0E8FEEF1616170638
:10719000E807F907C0F012161306E407F50798F0A0
:1071A000621B730B840B950B39F40A2661F0232BB9
:1071B000242B252B21F408950A2609F4A140A69535
:1071C0008FEF811D811D089597F99F6780E870E01A
:1071D00060E008959FEF80EC089500240A9416164D
:1071E000170618060906089500240A9412161306B5
:1071F000140605060895092E0394000C11F4882343
:1072000052F0BB0F40F4BF2B11F460FF04C06F5F5E
:107210007F4F8F4F9F4F089557FD9058440F551F34
:1072200059F05F3F71F04795880F97FB991F61F008
:107230009F3F79F087950895121613061406551F7F
:10724000F2CF4695F1DF08C0161617061806991FEB
:10725000F1CF86957105610508940895E894BB27E0
:1072600066277727CB0197F908950E94C03808F464
:107270008FEF08950E944D390C94FB380E94ED3831
:1072800038F00E94F43820F0952311F00C94E43883
:107290000C94EA3811240C942F390E940C3970F3A5
:1072A000959FC1F3950F50E0551F629FF001729FAB
:1072B000BB27F00DB11D639FAA27F00DB11DAA1FBA
:1072C000649F6627B00DA11D661F829F2227B00D07
:1072D000A11D621F739FB00DA11D621F839FA00D92
:1072E000611D221F749F3327A00D611D231F849FE2
:1072F000600D211D822F762F6A2F11249F57504039
:107300009AF0F1F088234AF0EE0FFF1FBB1F661FB3
:10731000771F881F91505040A9F79E3F510580F07C
:107320000C94E4380C942F395F3FE4F3983ED4F387
:10733000869577956795B795F795E7959F5FC1F720
:10734000FE2B880F911D9695879597F90895991BA7
:1073500079E004C0991F961708F0961B881F7A954C
:10736000C9F780950895AA1BBB1B51E107C0AA1F4E
:10737000BB1FA617B70710F0A61BB70B881F991FD6
:107380005A95A9F780959095BC01CD01089597FB7A
:10739000072E16F4009407D077FD09D00E94B33968
:1073A00007FC05D03EF4909581959F4F0895709508
:1073B00061957F4F0895EE0FFF1F0590F491E02D2A
:1073C00009941DE0C9E7DDE004C0FE010E94DB393D
:1073D0002196CA37D107C9F7F894FFCF0001000200
:1073E000100020004000800000010002000400089E
:1073F0000010002001020101B716B71600000306B5
:10740000080A6800010A0C1520C812010F0E1F207F
:107410000102040810204080000000007C13DC12F0
:107420000913C9133A1318132C13000000005C1839
:0C7430002F181319051828181518061835
:107800000C94343C0C94513C0C94513C0C94513CE1
:107810000C94513C0C94513C0C94513C0C94513CB4
:107820000C94513C0C94513C0C94513C0C94513CA4
:107830000C94513C0C94513C0C94513C0C94513C94
:107840000C94513C0C94513C0C94513C0C94513C84
:107850000C94513C0C94513C0C94513C0C94513C74
:107860000C94513C0C94513C11241FBECFEFD8E036
:10787000DEBFCDBF11E0A0E0B1E0ECE9FFE702C060
:1078800005900D92A230B107D9F712E0A2E0B1E065
:1078900001C01D92AD30B107E1F70E942D3D0C945F
:1078A000CC3F0C94003C982F959595959595959582
:1078B000905D8F708A307CF0282F295A8091C0000B
:1078C00085FFFCCF9093C6008091C00085FFFCCF60
:1078D0002093C6000895282F205DF0CF982F809127
:1078E000C00085FFFCCF9093C6000895EF92FF92F1
:1078F0000F931F93EE24FF2487018091C00087FD22
:1079000017C00894E11CF11C011D111D81E4E8164B
:1079100082E4F8068FE0080780E0180770F3E09132
:107920000401F091050109958091C00087FFE9CF1E
:107930008091C6001F910F91FF90EF9008950E94D3
:10794000763C982F8091C00085FFFCCF9093C600B5
:1079500091362CF490330CF09053892F089597555D
:10796000892F08951F930E949F3C182F0E949F3CCF
:107970001295107F810F1F9108951F93182F882350
:1079800021F00E94763C1150E1F71F9108951F935A
:10799000182F0E94763C803249F0809103018F5F5E
:1079A000809303018530C1F01F9108958091C0003C
:1079B00085FFFCCF84E18093C6008091C00085FFE5
:1079C000FCCF1093C6008091C00085FFFCCF80E102
:1079D0008093C6001F910895E0910401F091050184
:1079E00009951F9108950E94763C803241F0809164
:1079F00003018F5F80930301853081F008958091AA
:107A0000C00085FFFCCF84E18093C6008091C00058
:107A100085FFFCCF80E18093C6000895E0910401CA
:107A2000F09105010995089540E951E08823A1F0FE
:107A30002D9A28EE33E0FA013197F1F721503040CA
:107A4000D1F72D9828EE33E0FA013197F1F7215064
:107A50003040D1F7815061F708953F924F925F9285
:107A60006F927F928F929F92AF92BF92CF92DF924E
:107A7000EF92FF920F931F93CF93DF93000080E16B
:107A80008093C4001092C50088E18093C10086E015
:107A90008093C2005098589A259A81E00E94143D24
:107AA00024E1F22E9EE1E92E85E9D82E0FE0C02ECA
:107AB00010E1B12EAA24A394B1E49B2EA6E58A2E50
:107AC000F2E57F2EE0E26E2E79E4572E63E5462E36
:107AD00050E5352E0E94763C8033B1F18133B9F107
:107AE000803409F46FC0813409F476C0823409F41B
:107AF00085C0853409F488C0803531F1823521F1A3
:107B0000813511F1853509F485C0863509F48DC0BC
:107B1000843609F496C0843709F403C1853709F423
:107B200072C1863709F466C0809103018F5F80932C
:107B30000301853079F6E0910401F0910501099582
:107B40000E94763C803351F60E94F33CC3CF0E94E2
:107B5000763C803249F78091C00085FFFCCFF092DF
:107B6000C6008091C00085FFFCCF9092C600809136
:107B7000C00085FFFCCF8092C6008091C00085FFC9
:107B8000FCCF7092C6008091C00085FFFCCF609250
:107B9000C6008091C00085FFFCCF5092C600809146
:107BA000C00085FFFCCF4092C6008091C00085FFD9
:107BB000FCCF3092C6008091C00085FFFCCFB09210
:107BC000C60088CF0E94763C863808F4BDCF0E945C
:107BD000763C0E94F33C7ECF0E94763C803809F4CC
:107BE0009CC0813809F40BC1823809F43CC1883942
:107BF00009F48FC080E00E94C73C6CCF84E10E94F2
:107C0000BD3C0E94F33C66CF85E00E94BD3C0E94D3
:107C1000F33C60CF0E94763C809306010E94763C44
:107C2000809307010E94F33C55CF0E94763C80333D
:107C300009F41DC183E00E94BD3C80E00E94C73C66
:107C400049CF0E94763C809309020E94763C809343
:107C5000080280910C028E7F80930C020E94763C79
:107C6000853409F415C18091080290910902892B8D
:107C700089F000E010E00E94763CF801E85FFE4FDA
:107C800080830F5F1F4F80910802909109020817AF
:107C9000190788F30E94763C803209F045CF809125
:107CA0000C0280FF01C16091060170910701660F0F
:107CB000771F7093070160930601A0910802B091AD
:107CC00009021097C9F0E8E0F1E09B01AD014E0F09
:107CD0005F1FF999FECF32BD21BD819180BDFA9A17
:107CE000F99A2F5F3F4FE417F50799F76A0F7B1F4B
:107CF00070930701609306018091C00085FFFCCF5F
:107D0000F092C6008091C00085FFFCCFB092C60003
:107D1000E1CE83E00E94C73CDDCE82E00E94C73CFA
:107D2000D9CE0E94763C809309020E94763C8093D3
:107D300008028091060190910701880F991F909386
:107D40000701809306010E94763C853409F4A6C0A1
:107D500080910C028E7F80930C020E94763C8032D0
:107D600009F0B8CE8091C00085FFFCCFF092C6002C
:107D7000609108027091090261157105B9F140E046
:107D800050E080910C02A82FA170B82FB27011C0E2
:107D9000BB2309F45CC0E0910601F0910701319624
:107DA000F0930701E09306014F5F5F4F46175707B7
:107DB000E8F4AA2369F3F999FECF209106013091E6
:107DC000070132BD21BDF89A90B58091C00085FFB2
:107DD000FCCF9093C6002F5F3F4F30930701209355
:107DE00006014F5F5F4F4617570718F38091C00099
:107DF00085FDE5CE8091C00085FFF8CFE0CE81E023
:107E00000E94C73C67CE0E94763C803209F08CCE3F
:107E10008091C00085FFFCCFF092C6008091C00029
:107E200085FFFCCFE092C6008091C00085FFFCCFAB
:107E3000D092C6008091C00085FFFCCFC092C600E2
:107E40008091C00085FFFCCFB092C60043CEE09188
:107E50000601F091070194918091C00085FFFCCF4D
:107E60009093C6009CCF80E10E94C73C33CE0E9415
:107E7000763C0E94763C182F0E94763C112309F430
:107E800083C0113009F484C08FE00E94C73C22CE29
:107E900080910C02816080930C02E5CE80910C02EF
:107EA000816080930C0259CF809107018823880F4D
:107EB000880B8A2180930B02809106019091070123
:107EC000880F991F90930701809306018091080203
:107ED00080FF09C080910802909109020196909359
:107EE000090280930802F894F999FECF1127E091D6
:107EF0000601F0910701C8E0D1E08091080290915D
:107F00000902103091F40091570001700130D9F34B
:107F100003E000935700E89500915700017001308D
:107F2000D9F301E100935700E89509901990009169
:107F3000570001700130D9F301E000935700E89534
:107F40001395103498F011270091570001700130FB
:107F5000D9F305E000935700E895009157000170B0
:107F60000130D9F301E100935700E895329602976A
:107F700009F0C7CF103011F00296E5CF112480919F
:107F8000C00085FFB9CEBCCE8EE10E94C73CA2CD19
:0E7F900085E90E94C73C9ECDF894FFCF80008B
:00000001FF
